:020000022000DC
:1060000038100120156D030093EC0500E96C0300C6
:10601000E96C0300E96C0300E96C03000000000078
:10602000000000000000000000000000396E0300C6
:10603000E96C030000000000A56D0300E96C03009B
:106040005970030085FC0400597003005970030067
:106050005970030059700300597003005970030010
:106060005970030059700300597003005970030000
:1060700059700300597003005970030059700300F0
:1060800059700300597003005970030059700300E0
:1060900059700300597003005970030059700300D0
:1060A00059700300597003005970030059700300C0
:1060B00059700300597003005970030059700300B0
:1060C00059700300597003005970030059700300A0
:1060D0005970030059700300597003005970030090
:1060E0005970030059700300597003005970030080
:1060F0005970030059700300597003005970030070
:1061000081F0004102E000BF83F0004330B54FEA68
:1061100041044FEA430594EA050F08BF90EA020FD5
:106120001FBF54EA000C55EA020C7FEA645C7FEA68
:10613000655C00F0E2804FEA5454D4EB5555B8BF8B
:106140006D420CDD2C4480EA020281EA030382EAFC
:10615000000083EA010180EA020281EA0303362D8E
:1061600088BF30BD11F0004F4FEA01314FF4801C61
:106170004CEA113102D0404261EB410113F0004F73
:106180004FEA03334CEA133302D0524263EB43032A
:1061900094EA050F00F0A780A4F10104D5F1200EC8
:1061A0000DDB02FA0EFC22FA05F2801841F1000123
:1061B00003FA0EF2801843FA05F359410EE0A5F1F7
:1061C00020050EF1200E012A03FA0EFC28BF4CF028
:1061D000020C43FA05F3C01851EBE37101F00045DE
:1061E00007D54FF0000EDCF1000C7EEB00006EEBEB
:1061F0000101B1F5801F1BD3B1F5001F0CD3490875
:106200005FEA30004FEA3C0C04F101044FEA4452CB
:1062100012F5800F80F09A80BCF1004F08BF5FEA52
:10622000500C50F1000041EB045141EA050130BD32
:106230005FEA4C0C404141EB0101013C28BFB1F544
:10624000801FE9D291F0000F04BF01460020B1FA8F
:1062500081F308BF2033A3F10B03B3F120020CDA62
:106260000C3208DD02F1140CC2F10C0201FA0CF040
:1062700021FA02F10CE002F11402D8BFC2F1200CA5
:1062800001FA02F120FA0CFCDCBF41EA0C0190405B
:10629000E41AA2BF01EB0451294330BD6FEA0404A4
:1062A0001F3C1CDA0C340EDC04F11404C4F120028F
:1062B00020FA04F001FA02F340EA030021FA04F3A1
:1062C00045EA030130BDC4F10C04C4F1200220FAF8
:1062D00002F001FA04F340EA0300294630BD21FA36
:1062E00004F0294630BD94F0000F83F4801306BFFC
:1062F00081F480110134013D4EE77FEA645C18BFF0
:106300007FEA655C29D094EA050F08BF90EA020F86
:1063100005D054EA000C04BF1946104630BD91EA7E
:10632000030F1EBF0021002030BD5FEA545C05D181
:106330004000494128BF41F0004130BD14F58004C0
:106340003CBF01F5801130BD01F0004545F0FE4134
:1063500041F470014FF0000030BD7FEA645C1ABF69
:10636000194610467FEA655C1CBF0B46024650EAA0
:10637000013406BF52EA033591EA030F41F40021CC
:1063800030BD00BF90F0000F04BF0021704730B552
:106390004FF4806404F132044FF000054FF0000127
:1063A00050E700BF90F0000F04BF0021704730B5E8
:1063B0004FF4806404F1320410F0004548BF4042BD
:1063C0004FF000013EE700BF42004FEAE2014FEA12
:1063D00031014FEA02701FBF12F07F4393F07F4FED
:1063E00081F06051704732F07F4208BF704793F0F0
:1063F0007F4F04BF41F40021704730B54FF4607403
:1064000001F0004521F000411CE700BF50EA010205
:1064100008BF704730B54FF000050AE050EA0102AE
:1064200008BF704730B511F0004502D5404261EB1E
:1064300041014FF4806404F132045FEA915C3FF45F
:10644000D8AE4FF003025FEADC0C18BF03325FEAFC
:10645000DC0C18BF033202EBDC02C2F1200300FAAD
:1064600003FC20FA02F001FA03FE40EA0E0021FAD2
:1064700002F11444BDE600BF4FEA4102B2F1E0432D
:1064800024BFB3F5001CDCF1FE5C0DD901F0004C1B
:106490004FEAC0024CEA5070B2F1004F40EB83006B
:1064A00008BF20F00100704711F0804F21D113F197
:1064B0003872BCBF01F00040704741F480114FEAD0
:1064C0005252C2F11802C2F1200C10FA0CF320FA59
:1064D00002F018BF40F001004FEAC1234FEAD32376
:1064E00003FA0CFC40EA0C0023FA02F34FEA4303E0
:1064F000CCE77FEA625307D150EA01331EBF4FF069
:10650000FE4040F44000704701F0004040F0FE4083
:1065100040F40000704700BF53B94AB9002908BFD2
:1065200000281CBF4FF0FF314FF0FF3000F00CB8D7
:10653000ADF1080C6DE904CE00F008F8DDF804E0D8
:10654000DDE9022304B07047704700BF2DE9F04732
:1065500086468C460846089E154674461946002B0A
:1065600040F0C2808542B2FA82F245D94AB1C2F106
:10657000200300FA02FC2EFA03F3954043EA0C0CC8
:1065800094404FEA154EA8B2BCFBFEF8230C0EFB5C
:1065900018CC08FB00F943EA0C43994528D9EB18BD
:1065A00008F1FF3704D2994502D9A8F102072B441C
:1065B000A3EB0903A4B2B3FBFEFC0EFB1C330CFBE4
:1065C00000F044EA0344A04214D92C190CF1FF3323
:1065D00004D2A04202D9ACF102032C44241A43EAAB
:1065E00007401EB1D440002334607360BDE8F087DB
:1065F0004746DDE76346F1E792BB431B01214FEAC3
:10660000154EAFB2B3FBFEFC200C0EFB1C330CFB93
:1066100007F840EA0343984562D9EB180CF1FF30C4
:1066200004D2984502D9ACF102002B44A3EB080335
:10663000A4B2B3FBFEFC0EFB1C330CFB07F744EAD1
:106640000344A7424ED92C190CF1FF3304D2A742C0
:1066500002D9ACF102032C44E41B43EA0040C0E73A
:10666000C2F1200320FA03F1954090402EFA03F383
:1066700003434FEA154EAFB2B1FBFEFC0EFB1C10FC
:10668000190C0CFB07F841EA0041884504FA02F4B2
:1066900022D969180CF1FF3004D2884502D9ACF137
:1066A00002002944A1EB08019BB2B1FBFEFC0EFBEA
:1066B0001C110CFB07F743EA01439F420ED9EB186C
:1066C0000CF1FF3104D29F4202D9ACF102012B44FC
:1066D000DB1B41EA004192E76046E3E76146F7E7EA
:1066E0006046A3E76346B7E7834206D916B900219F
:1066F00008467BE7C6E900E0F9E7B3FA83F78FB90C
:10670000834201D3724508D8BEEB020460EB030359
:1067100001209C461EB9002168E73846FAE7C6E921
:10672000004CF8E7C7F1200CBB4022FA0CF41C43E4
:106730002EFA0CF120FA0CF3B84001434FEA144949
:106740000EFA07F5B3FBF9F81FFA84FE09FB1830BF
:106750000B0C08FB0EFA43EA00439A4502FA07F2D3
:1067600040D9E31808F1FF3004D29A4502D9A8F1C4
:1067700002002344A3EB0A0389B2B3FBF9F809FB37
:10678000183308FB0EFE41EA03418E452CD96118EF
:1067900008F1FF3304D28E4502D9A8F10203214447
:1067A00043EA0040A0FB0298A1EB0E014145CE4612
:1067B000434602D306D14D4504D2B9EB020E68EB35
:1067C00004030138002EA6D0B5EB0E0261EB0301E5
:1067D00001FA0CFC22FA07F34CEA0303F940C6E97C
:1067E000003198E74046C5E74346D9E710F8012B4A
:1067F00011F8013B012A28BF9A42F7D0D01A7047FE
:10680000034611F8012B03F8012B002AF9D1704738
:10681000034613F8012B002AFBD1181A01387047E0
:106820002DE9F0414A4D88B0D5F85C31996811F0F6
:10683000010100AF25D107F1080240F6034012F034
:10684000F3FA044600287ED1BC68E3681B78ABB934
:1068500014F022FABFF35B8FD5F8D430BFF35B8F0F
:1068600005F1D40203F00903BFF35B8F52E8001F68
:1068700042E800300028F9D1BFF35B8F20462CF0AE
:106880000BFD07F10802002141F2030012F0CCFADF
:106890000446002857D1BB682E4EDA68D2F80100B2
:1068A000D2F8051003C618462CF0F6FC214607F175
:1068B000080241F2010012F0B7FA0446002842D162
:1068C000B868C3685A7885F870205A88A5F872208D
:1068D0001A7985F87120B3F80720A5F87420B3F869
:1068E0000530A5F876302CF0D7FC214607F10802D8
:1068F00041F2020012F098FA044620BBD7F8088053
:10690000D8F80C20531C413218685968344603C427
:10691000083393422646F7D10F4838F06AFA4046CA
:106920002CF0BAFC95F87C305A061BD40B4BFB615B
:1069300002230B48BB6107F118024FF482516FF03C
:10694000120438F046FB20462037BD46BDE8F081F2
:10695000C001002038020020400200208DC6060041
:106960007C40060007F10802002142F2030012F009
:106970005BFA04460028E6D1BB68AB4EDA68D2F871
:106980000100D2F8051003C618462CF085FC2146FC
:1069900007F1080242F2020012F046FA044600280B
:1069A000D1D1BC68E368B3F8012091B249B1D9787C
:1069B00039B1A5F80421DA78114606F128003CF037
:1069C00019F920462CF068FC95F87C6016F020063A
:1069D00018D1022140F66D4012F0E0F8044600287C
:1069E00000F0CD8002210C303BF07AF801230370D7
:1069F00046702146324640F66D4012F015FA0446C4
:106A00000028A0D195F89C301B0713D507F1080288
:106A1000002142F21C0012F007FA0446002892D12D
:106A2000B868C368D3F80120D3F80530C5E9382326
:106A30002CF032FC95F8D8309E0622D5391DB81CB2
:106A400012F074FA044600287FF47DAF042142F26C
:106A5000240012F0A3F80646002800F090800421DC
:106A60000C303BF03DF87B880380BB884380224696
:106A7000314642F2240012F0D7F9044600287FF490
:106A800062AF95F8D8305C0611D507F108020021F5
:106A900042F22A0012F0C8F9044600287FF453AFEE
:106AA000B868C3685B7885F820312CF0F5FB0821C5
:106AB00042F2010012F072F8044600285FD008216B
:106AC0000C303BF00DF895F8D81011F0400F02464D
:106AD00040F2022308BF032388074CBF43F02C0079
:106AE00043F00C008B0695F8D93048BF40F04000C9
:106AF00013F0090F95F8A23018BF40F4006003F0BE
:106B00000603CE0748BF40F01000062B08BF40F434
:106B1000C070002138F06CFA2146002242F20100D8
:106B200012F082F9044600287FF40DAF95F87C300E
:106B3000B5F80411980625D4D1B907F1080241F23D
:106B4000050012F071F9044600287FF4FCAEB5F898
:106B50000431BC684BB9E368B3F80120A5F80421FF
:106B60009A88324811463CF045F820462CF094FBB8
:106B7000082140F6014012F011F8044690B96FF078
:106B80006804E0E60029F3D1294BFB610223294880
:106B9000BB6107F118024FF4825138F01AFA6FF016
:106BA0000404D0E608210C303AF09AFF95F8D8306A
:106BB000D907024653BF4FF0005119A1D1E9000196
:106BC0001D4838F015FA2146002240F6014012F027
:106BD0002BF9044600287FF4B6AE01463A1D4FF665
:106BE000014012F021F958B3144BFB610223114804
:106BF000BB6107F118024FF4845138F0EAF938F01C
:106C000001FC044600287FF49EAE15F06FFC04469C
:106C100000287FF498AE12F05FFF044693E600BFB1
:106C2000908800020080002098020020C802002006
:106C3000B1C606007C40060010880002D4C60600DB
:106C40007B68DC68B4F80130032B96BF434A4449A3
:106C500052F823106D468AB06A464248D3614FF419
:106C600000731384404BC2E9050142F8103F3F48CE
:106C70004FF4135138F0ADF9B4F80120B4F80330F3
:106C8000022AAD4648D1032B46D8394A52F8231080
:106C90006D468AB06A463748D3614FF40073138457
:106CA000314BC2E9050142F8103F4FF413512F4810
:106CB00038F08FF96379A679D4F80900032BAD4633
:106CC00098BF2D4AB4F8075094BF52F823102449B6
:106CD0006C468CB06A46DFF8B4C0C2E907364FF4A0
:106CE00000739385254BC2E905C1C2E909504FF4F1
:106CF000735142F8103F1D4838F06BF9A54678688B
:106D00002CF0CAFA3A1D00214FF6024012F08CF81E
:106D1000044618B11A4B68E71149B9E77868194D6C
:106D2000C368B3F80130A5F8C1302CF0B5FA95F876
:106D3000C1305B077FF563AF3A1D21464FF6034034
:106D400012F072F808B1104B4FE77868C3685B78AF
:106D500085F8C0302CF0A0FA51E700BFB05A060009
:106D6000F2C00600F8C60600040000017C400600E0
:106D7000A05A060011C70600905A0600070000013D
:106D800056C70600C00100207FC7060029C70600BD
:106D90002DE9F843D0E90C35D0F82C805C1930345B
:106DA000A0450F46164619D81D4DA3FB05011AA391
:106DB000D3E90023FFF7B0FB0346A4EB0800A0FBD8
:106DC000050123F07F4414A3D3E90023FFF7A4FBBC
:106DD00020F07F403C603060BDE8F883DFF84090F1
:106DE0000DA3D3E90023A8FB0901FFF795FB044697
:106DF00005F1300008A3D3E90023A0FB0901FFF748
:106E00008BFB24F07F4420F07F403C603060BDE885
:106E1000F88300BFAFF300808D49FD1A0700000022
:106E200000CA9A3B000000009FED0D7B124B134AF5
:106E30001348144910B483ED007B9FED0B7B82ED6A
:106E4000007B9FED0B7B104B4FF0FF34002281ED58
:106E5000007B04601A605DF8044B1EF06DBE00BF3D
:106E6000FFFFFFFFFF1F0000000000000000000008
:106E70001F000000000000004003002028640020E4
:106E8000D892002038030020D0920020000000009B
:106E9000002800F05F812DE9F04FB54C94F86A208E
:106EA00012F001058DB040F0A78194F82500FF2372
:106EB00000F0030084F8263028F0C4F994F86A0042
:106EC000420727D494F8292094F8353004EB820245
:106ED00004EB8303D66AD3F8388086B1A4483146E0
:106EE00020F05AFE33785B0605D506211BF00CFD19
:106EF000002800F083819E48414620F04DFE337803
:106F000013F00E0F40F0B780236A93B10C200DB040
:106F1000BDE8F08F2A4604F16B01C0F3C00028F0F1
:106F20002DFBFF2884F82600CCD0284628F0D0F985
:106F3000C8E71DF0E5FE8146002800F071811DF0D4
:106F4000EBFE8246002800F0688121F053FA0546E6
:106F5000002800F06781D0F888004FF6FF732B857A
:106F600005F11C0B002800F04F8105F1780105F1B7
:106F70007C021BF0D5FCB5F876307E4A23F4EF6333
:106F800023F0070343F4887343F00103A5F8763038
:106F90001346D2F80120C5F89B21C5F8A12113F8AA
:106FA000012B9B88A5F89F31A5F8A53195F89A315A
:106FB00002F0010262F3000362F3410385F89A31A3
:106FC00095F8393003F03F0363F07F0385F83930DB
:106FD00095F88E3023F0070385F88E3095F83C3015
:106FE00023F00703002785F83C304FF4C023C5F891
:106FF00088312846C5E91277C5F88870A5F88C70E5
:107000006F86C5F82E7085F83B702F65A5F88E71D8
:10701000A5F8847123F094FF85F85071C5F8549158
:1070200021F086FC95F8943160F3020385F89431E1
:1070300021F084FC95F8943160F3C50385F8943110
:1070400095F8803167F3410385F8803101212846A6
:1070500022F0D4F805F1D40023F0FAFCC4E9189A20
:10706000C4F820B0C5E905772F70ED6129F0B8FBB1
:10707000002840F0C58094F824300121C3F3420376
:107080000DF12B008DF82B301BF0E8FD0246002897
:1070900062D098F80110304620F040FB3123364989
:1070A000A360364BB4F86870A0FB01010025C0183E
:1070B00041F107012CA3D3E90023C4E9055525704C
:1070C0006560E560FFF728FA20611DF0FBF800F12C
:1070D00009083FB9357805F00F05A5F10105B5FAA6
:1070E00085F56D0994F82400236965F3000010F01C
:1070F000010584F824004BD0214A09920020106039
:107100000225204A204F04930BAE019305920321E0
:10711000CDE90200069443460090089607972A4658
:107120000B951CF06DFF31461DF0B0FEA0B917495C
:1071300005914AF2D8330093CDE90300CDE901006F
:107140000797089606944346012203210B951CF0ED
:1071500023FF43E020F02EBA236A002B3FF4D6AE83
:1071600020F0E6F9D2E600BF8D49FD1A07000000C5
:10717000909300208FBE060000CA9A3B8C49FD1AEE
:10718000849300209977040055440400AD720400F4
:107190002B4A2C48049303F247130694029591213D
:1071A0001360A7FB000301FB0731274B0793274B15
:1071B00005934FF6FF730992022703930BAE1EA3AC
:1071C000D3E900230B970896FFF7A6F94346CDE9CC
:1071D00000503A46284603211CF012FF31461DF0AC
:1071E00055FE0028B8D194F86A3043F0010384F8C2
:1071F0006A3020F0F3FE60B1002088E6122086E6B7
:1072000020F096F9032082E605F18000C5F8880099
:10721000ABE6012027F0F8FFEEE748461DF076FDCB
:10722000072074E650461DF07DFD48461DF06EFDBA
:10723000F6E700BFAFF300808D49FD1A070000009C
:1072400084930020002AE7845544040099770400C1
:1072500070B590F824308AB0C3F342030D4604465B
:1072600001210DF1230016468DF823301BF0F6FCAA
:1072700071780246284620F051FA1F491F4AA0FBA8
:107280000131981841F1070119A3D3E90023FFF751
:1072900043F923699842054621D21B1A0022019224
:1072A000174A0293174BA21AA3FB0232022192093A
:1072B00000230A4409AE099113490591CDE903332E
:1072C0000321D2B20696009318461CF0F9FE31460F
:1072D0001DF0DCFD38B9256100200AB070BDFBD976
:1072E000C21A0023DBE70C200AB070BDAFF30080A8
:1072F0008D49FD1A0700000000CA9A3B8C49FD1A0F
:10730000909300208988888855440400000000007C
:1073100038B5194C9DF810E094F848C01CF00105F0
:1073200023D163F3420C400194F83230A1874FEA35
:10733000CE0E0EF0180E00F0200040EA0E0023F0F2
:10734000380303430D4884F832309121A2FB000337
:1073500084F848C001FB023105A3D3E90023FFF7FD
:10736000DBF8C4E91000284638BD0C25284638BD96
:107370008D49FD1A0700000030640020002AE784D0
:1073800010B504469DF8080022844FEA411CC00055
:10739000A17D00F018000CF0200C4CEA000C0C4809
:1073A00021F038014CEA010CA3FB0002912184F882
:1073B00016C001FB032104A3D3E90023FFF7ACF8B7
:1073C000606210BDAFF300808D49FD1A0700000018
:1073D000002AE784000000002DE9F047044600F190
:1073E000350190F8480094F832305B4DDFF8808129
:1073F000C0F3400060F386138CB084F832301CF088
:10740000B5FF94F83220A38F5448E46102F079026A
:10741000002784F832209121A3FB0002C4E90577FC
:10742000277001FB03214AA3D3E90023FFF774F877
:10743000651B626C4A4B6760AD08A3FB053502F122
:107440000903984298BF3A46C5F3470522644FF0B6
:1074500031028CBF19460146A26005EB4502E76088
:10746000216148F8221006461CF02CFF236A00F127
:1074700009074FEA450A002B4AD00DF12C09AA440E
:1074800008EB8A030993CDF820900694A38F334824
:107490004FF00008A3FB0002CDF80C80912101FB06
:1074A0000321236904932F4B07932F4B05934FF030
:1074B000020A27A3D3E90023CDF82CA0FFF72CF86C
:1074C000104619464FF47A720023FFF725F8043569
:1074D000EDB2CDE9016003213B462A46CDF800809C
:1074E00040461CF08DFD49461DF0D0FC60B994F873
:1074F000483043F0010384F8483020F023FB08B300
:1075000000200CB0BDE8F0870C200CB0BDE8F0877F
:107510000DF12C09CDE90A3321694B460AAA032053
:1075200001F096F90028AAD10B99104808A3D3E9D5
:107530000023A1FB0001FEF7EFFF0A9B20F07F472D
:107540001F449CE7504627F05FFED9E7AFF3008069
:107550008D49FD1A0700000030640020002AE784EE
:10756000BD86F21A55440400CD7D040000CA9A3B42
:1075700020940020000000002DE9F04F05468BB05C
:107580008B46012002219A4614462BF0CDFB0022A7
:107590000221814601201BF013FA3B494FF4D472BB
:1075A00028461BF09DF9461DF6B2384B0095324631
:1075B000012100201CF09CFD10F0FD0F0CD0344A7E
:1075C0003449354840F62F0335F058FA404080F3EF
:1075D00011884FF0030002DF304BA4FB0348204624
:1075E00027A3D3E900234146FEF796FF2C4B20F05A
:1075F0007F47A7FB03310722E01A02FB071168EB64
:1076000001014FF47A720023FEF786FFCDE9017085
:10761000CDF800B008950695296995F939402148BB
:107620000491214931EA240128BF014605911F4CEC
:1076300007944FF6FE710391534632460121002014
:107640001CF0AAFC10F0FD0F0CD0114A1149124891
:1076500040F6440335F012FA404080F311884FF0B1
:10766000030002DFB9F1000F02D10BB0BDE8F08FCB
:107670000122022110460BB0BDE8F04F1BF0A0B96B
:107680008D49FD1A07000000806400209D830400DE
:1076900028660600EC660600585F060000CA9A3BA2
:1076A0008D49FD1A79E3040021E5040045830400B7
:1076B0002DE9F043C469228D4FF6FF739A428DB0D5
:1076C00000F088800546204623F00CFF95F828300E
:1076D000012B00F00F81022B00F00281002B00F043
:1076E000E18094F85071002F40F0FD80E68DB4F8F1
:1076F0003080002E71D1AA8C08F101060023CDE95B
:107700000A33B6B2002A70D094F93930002BC0F297
:1077100048810023A4F88A3195F82630D90740F132
:10772000EF800023A4F88E310DF127023146204668
:1077300023F042FC743000F04681B4F888312BB15C
:10774000B34240F20D819B1BA4F88831B4F8843118
:107750002BB1B34240F2FB809B1BA4F88431258EF1
:1077600017B9A84500F0EA800135ADB294F8D130E0
:1077700013F001065AD1DDE90A130A46002B40F046
:10778000ED80002900F0DC801E461846228DE46959
:107790000694CDE903570532A74D0290CDE90016B6
:1077A000D2B20121002005951CF08AFC10F0FD0FDB
:1077B00010D01DF095FB84420CD0A04AA049A148EE
:1077C00040F2155335F05AF9404080F311884FF0DC
:1077D000030002DF0DB0BDE8F083AA8C464400230D
:1077E000CDE90A33B6B2002A8ED195F82630DA07F1
:1077F00097D4B4F88A31002B00F08280B34240F273
:10780000FA809B1BA4F88A31B4F88E31002B8BD000
:107810009E4280F0DE809B1B9BB20022062BA4F8C8
:107820008E31228600F2AC8001277DE794F9392061
:107830006FF30003002A84F8D13077DB94F87600E8
:10784000C0F3C00100F0070028F030FEB4F86E204D
:10785000B4F86C30134403F2D51303447A4A7B48DE
:107860000721E3FB0021104671A3D3E90023FEF7B3
:1078700053FEDDE90A1320F07F4220692261904225
:1078800035BF161A801A002000260A46002B7FF406
:107890007DAF56EA010C7FF479AF002850D019462D
:1078A0001E4673E794F88E3003F01803182B7FF40C
:1078B00018AFA18DB4F886218B1D9A42C4BF931FC7
:1078C0005B1AB4F88211CCBF9BB21346994200F008
:1078D0008C80A4F88231A4F88431A4F8882100E7D0
:1078E0003D2784F85071394620460DB0BDE8F0437D
:1078F00021F042B90023A4F88831A4F88431F0E6DD
:10790000B4F88E31002B83D1628DB4F88C3140F203
:10791000E24101FB02F242F2107101FB0323013B41
:10792000B3FBF2F39BB2A4F88E316FE794F87700C3
:10793000012100F0070028F0BBFD87E73D4615E771
:10794000002D4BD000261146304633461EE700235B
:10795000A4F88431204623F0CFFB00E7304615E73A
:107960001DF026FA014600283BD00023A4F88831F8
:10797000238DC3801B23037100681DF0E3F9E5E646
:1079800094F939309342BFF6CFAEB8F1000F7FF4CF
:107990004BAFD4F878315A08DB0743D4C4F87821C8
:1079A000C2E628460AAA0BA904F1D409FFF7F0F9A8
:1079B000484623F08FF818B3484623F08BF818B3E5
:1079C00000232386A5E69DF82710204621F0D4F851
:1079D00000E70821204621F0CFF8FBE6002FB1D1C7
:1079E000F8E60123A4F88831B0E6B4F8881100293C
:1079F0007FF477AE6FE73E21204621F0BDF8E9E63F
:107A0000FF2021F071F8D7E70246D4E91E011AF0F1
:107A10009FFF0028D4D194F83C30580744BFA38D71
:107A2000238676E642F00042C4F87821FCE600BFE7
:107A30008D49FD1A07000000058304002866060032
:107A400038670600585F06008C49FD1A00CA9A3B49
:107A50002DE9F04F87B0CDE90432BDF8442003781A
:107A60000292BDF84820BDF84080BDF84C50468ECB
:107A7000B0F82E90B0F814B1019104460392002B97
:107A800000F0CB80013EB6B2A368D4F80C71721B33
:107A900092B2002B009209DAE168626823F0004399
:107AA00091422CBF7F18BF18A360FF1A009A638D04
:107AB00013FB02F39BB2B3FBF8F218FB02F080B2A7
:107AC00083421FFA82FA80F09780C01A40F2E242A5
:107AD0005D4902FB00F0A0FB010159A3D3E900239B
:107AE000FEF71AFD20F07F400744D94494F839305E
:107AF0004D44AD1B554440F2E246DB09E58506FBEB
:107B000008F500F08E80226C0099A36CDFF838B184
:107B100002FB1133A36428F0B5FE814694F874018A
:107B2000C0F3420028F0B0FE059B814406FB03F33E
:107B300005FB09F9236509F57429444B09F23F292E
:107B4000A3FB09394FEA994303FB0AF02364A5EB31
:107B50000309A36C6A080344963A934228BF13466C
:107B6000C4E911230023C4F87C31A0FB0B0134A32A
:107B7000D3E90023FEF7D0FC049B3F1A3448A0FB56
:107B80000330800A06FB00F02DA3D3E90023A0FBFD
:107B90000B01FEF7C1FC20F07F46029BA385039BEF
:107BA000A4F88C3129462046A4F82A8023F040FA14
:107BB000284BA18D2B44881DB3FBF5F39AB290425C
:107BC000A4F8862102D2521A063A92B2019BA4F876
:107BD000822113B10023A4F88E313B464A46314638
:107BE0002046FFF7C9FC94F8803143F0010384F884
:107BF000803107B0BDE8F08F08FB1231124840F227
:107C0000E24389B203FB01F1A1FB00010CA3D3E91C
:107C10000023FEF781FC3F1A67E74E445E44B6B28C
:107C200032E7049B0848A3FB000105A3D3E9002326
:107C3000FEF772FC20F07F46A9460136ADE700BF93
:107C40008D49FD1A0700000000CA9A3B83DE1B43E2
:107C50005917B7D17FC3C9012DE9F04F04460B680E
:107C6000077F1668D3F800A0638CD0F81E0095B08B
:107C700015464A7CADF84C30FF2AC7F3801389467D
:107C80000D9212908DF83F3072D198461A4612AB81
:107C900093E803000DF1400B1090ADF84410F80983
:107CA0000AF1710127680A915B460C900B9720F04E
:107CB0004BFE0A99002843D196F89A310C9A0A9003
:107CC00068F3410362F3000386F89A311098BBF819
:107CD0000430C6F8A101A6F8A531DAF87130C6F86B
:107CE0009B318B88A6F89F31E38D94F83010A972F0
:107CF0002B81D4F82A306B60D4F83A30AB6105F1AF
:107D0000180094F83E30037105211AF0A7FF6B7F2D
:107D100000F03F0060F305036B7794F83F30C3F346
:107D20000401A977A18EE981012803F01F0389B21C
:107D300006D91B3303F01F030B2B01D80A9A59BB3A
:107D40000022CAF8142095F820300B9862F3000343
:107D500085F82030E5680126214626711CF0E8FFF1
:107D600028682E7129461CF0EDFF15B0BDE8F08F94
:107D70000DF1400B10460DF13F015A4626F0BAFFB7
:107D80009DF83F80277F08F102085FFA88F88DF898
:107D90003F8008F0010282E7D9F800305A60E38E94
:107DA0002B82EB8940F2E24808FB03F71146638E11
:107DB0000A93304623F050F994F83F3096F8742136
:107DC0005B0963F3430286F8742128F05BFD0C9095
:107DD00096F87401C0F3420028F056FD0C9B18443D
:107DE00007FB00F0BA4B00F5742000F23F20A3FB24
:107DF00000307B08800C963B6862AB6294F83130AF
:107E000008FB03F3AB63238FA6F88C313946304669
:107E100023F00EF9AF4BB04AC6F890213B44B3FBB8
:107E2000F7F39AB2A6F88621298A881D824204DDDA
:107E3000C1F57F41FA310A4492B2A6F882216B68FB
:107E4000C6F87831234613F81C2FC2F34018DA071E
:107E500000F104814FF48073A3839AF8260027F081
:107E6000A3FC04F12B03002800F0EE80626AC4F842
:107E70002B20228D9A800D9BFF2B00F0E980BDF80E
:107E80004C301298A4F82930C4F82500BBF804300F
:107E9000A4F8233010989DF83F30C4F81F00A37752
:107EA000EB8963862B8AA386B6F88C31E38696F835
:107EB0007431C3F3420384F83830304620F0A6FA18
:107EC000A881E08021460B98D9F804401CF030FFCF
:107ED000AB89E3801C23D4F800B02371B8F1000F04
:107EE00040F0D18084F81C80214658461CF02AFFBF
:107EF00095F85B00B5F85080B5F85240012100F0CC
:107F0000070028F0D5FA444404F2D514DFF8D481F0
:107F10000444834671480721E4FB0801312300240F
:107F2000B360746068A3D3E90023F460FEF7F4FA49
:107F300020F07F4030616D6A0A9A7D1BD9F80C7081
:107F400040F2E24303FB02770221224601201AF0AD
:107F500037FD50461FF0DCFD07F2B2470246A7EBA3
:107F60000B07A7FB0801174657A3D3E90023FEF729
:107F7000D3FACDF804A0D9F808305949009120F07F
:107F80007F48BA1C3A3BD2B22046434401211CF040
:107F9000F1F8012800F082809AF82430DB076AD4D7
:107FA000304620F033FA4F4BA5FB035A044646A354
:107FB000D3E9002328465146FEF7AEFAD9F8083037
:107FC000494A0792A3F13A09484B069620F07F47A9
:107FD000A7FB0331E81A464B059340F2D1130893EF
:107FE00033694FF0000BCDE903B34FF0070303FBF8
:107FF00007116AEB01014FF47A720023FEF78CFA45
:108000000534E4B2CDE90170CDF800804B4622463C
:10801000012158461BF0C0FF10F0FD0F0CD0354A6F
:10802000354936484FF4E97334F028FD404080F379
:1080300011884FF0030002DF0122022110461AF0DE
:10804000BFFC15B0BDE8F08FC4F82B00988012E794
:108050000022C4F82520A4F8292017E7254A28493A
:108060002648F82334F00AFD404080F311884FF091
:10807000030002DFEEE600230122009318461146BA
:108080001CF036F88CE76B7F43F040036B77281DBC
:1080900026F028FC4FF00108E88323E71CF020FFBE
:1080A00082453FF479AF134A1649144840F27923C8
:1080B00034F0E4FC404080F311884FF0030002DF0D
:1080C0006AE700BFAFF300808D49FD1A070000008A
:1080D00083DE1B437FC3C901404B4C008C49FD1A12
:1080E0003DE3040000CA9A3B0DE304008D49FD1AEC
:1080F00079E30400EC6B0600EC660600585F0600AE
:1081000028630600486C06002DE9F04F8DB01F462D
:10811000BDF860300793CDE90501BDF868309DF8E2
:108120005C90BDF864B00493002016461FF064FF15
:10813000002800F0658109F00108044640461CF063
:1081400005F90390B8F1000F6DD1169B03993A46DB
:10815000404620F0F9FB002840F06381236A04F1D7
:108160001C020892002B65D0D4F820A0DAF8005049
:1081700007F0010B9AF85A00C0F3C00100F00700A5
:1081800028F094F9BAF85210BAF8502000F2D5133A
:108190000A441344CC48CD4A0721E3FB0021104692
:1081A000C7A3D3E90023FEF7B7F920F07F40286189
:1081B000304627F069F894F833306FF3410384F8C0
:1081C0003330FF2384F83430002E00F01D81A9F1F4
:1081D0000203012B40F2298194F84810089869F3B2
:1081E000420184F8481094F833106BF30001DDE984
:1081F000052384F8331016990968616216998988F5
:1082000021850499218600960021FFF7B9F8606462
:1082100028F0E6FA002840F013812046FFF7DCF84A
:108220000DB0BDE8F08F06211AF06EFB00288CD14E
:108230001220F5E71CF064FD0990002800F073811E
:1082400020F0D8F80546002800F06A8120301AF0A6
:1082500019FD05F11C0A002840F01D81032105F1DC
:10826000240027F0D7FF079BD5F888006B854FF6D1
:10827000FF73A5F82CB02B85002800F0198105F1BB
:108280007C0205F178011AF04BFBB5F8763023F447
:10829000EF6323F0070343F4887343F00103A5F869
:1082A000763095F88E304FF0000B23F0070385F8F9
:1082B0008E300121C5F888B0A5F88CB0284620F092
:1082C0009DFFC5F82EB0A5F832B005F1340026F0B8
:1082D000B3FA95F8393060F30503012185F8393098
:1082E0000DF12F0027F096FF049B9DF82F20A5F895
:1082F0008C31774B85F83BB0A3FB0213DB0803EB13
:108300004303A2EB830295F83930A98DA5F88EB10D
:1083100003F03F0385F8393095F83C30A5F884B177
:10832000053223F0030385F83A20079A85F83C309C
:1083300040F2E24B674B0BFB02FB4FF4C0225B4465
:10834000C5F88821881DB3FBFBF39AB28242A5F8D9
:10835000862102DD063A521A92B2A5F882212846F9
:1083600022F0EEFD5946284622F062FE099BC5F830
:108370005431002385F8503120F0DAFA95F8942131
:1083800060F3020285F8942120F0D8FA95F8942140
:1083900060F3C50285F8942195F88021002363F3EA
:1083A000410285F8802105F1D40022F051FB95F8B7
:1083B0009A21169907F0010B6BF3410285F89A2177
:1083C0003122AA600023169A6B60EB601268C5F830
:1083D000A12195F89A218988A5F8A51169F30002D1
:1083E000039985F89A210A68C5F89B218A88A5F81F
:1083F0009F21C4F820A0C5E905332B70ED61B9E6D3
:108400000C200DB0BDE8F08F27F07EFB00283FF474
:10841000DEAE16993846324627F0B0F884F83400BC
:10842000D5E60B200DB0BDE8F08F002026F050FF00
:1084300094F8333043F00203C14684F83330CBE67E
:10844000256AEB6E63B1244A2449254840F21D4356
:1084500034F014FB404080F311884FF0030002DF3A
:1084600005F1600105F15C001AF05EFA064600288D
:108470003AD02F68EE66D7F85451002D42D02846E6
:108480001CF044FC38461FF0BBFF0023032023628E
:108490000DB0BDE8F08F104A12491148C12334F0E5
:1084A000EDFA404080F311884FF0030002DFD5E67B
:1084B00005F18000C5F88800E1E600BFAFF3008059
:1084C0008D49FD1A0700000000CA9A3B8C49FD1A2D
:1084D000ABAAAAAA7FC3C901786C06001C65060076
:1084E000585F0600B45F0600104A1149114840F277
:1084F0001F4334F0C3FA404080F311884FF003006B
:1085000002DFB6E7094A0A490A4840F2264334F036
:10851000B5FA404080F311884FF0030002DFAEE768
:1085200009981CF0F3FB07207AE600BF786C060080
:1085300078660600585F06002DE9F04F04468DB0BE
:1085400090F81C80238D406AADF82C30E307C8F307
:10855000C0170E461546C8F340180A9000F10D8169
:108560000023A383B37C707C13F001031CBFD4F8F9
:108570001E30C4F82B3004F12B0214BF638CC4F8F6
:108580002B30FF28938004F1250904F11F0240F0ED
:10859000E5800023BDF82C100A98C4F82530A9F80E
:1085A0000430A777C4F81F0091803368D3F8009097
:1085B000EB8963862B8AA386B9F83030E38628F0EE
:1085C0005FF984F838002F6838461FF01FFF00213C
:1085D000A881E080384622F03FFDD6F804A020684C
:1085E00021461CF0A5FBAB89AAF806301C23DAF85B
:1085F00000408AF80430B8F1000F40F0CC808AF8CF
:108600001C80514620461CF09DFBBB687A6895F89B
:108610005A00B5F80E80F568674C934238BF134690
:10862000C0F3C00103F1090A00F0070040F2E24381
:1086300003FB08F827F03AFF002202212D1A01203F
:108640001AF0BEF948461FF0ADFCA5FB044558A33F
:10865000D3E90023834629462046FDF75DFFCDF888
:108660000490B3685549009120F07F490BF1040252
:10867000A3EB0A03D2B24B44012100201BF07AFD88
:1086800010F0FD0F0CD04E4A4E494F4840F23D339A
:1086900034F0F4F9404080F311884FF0030002DF1A
:1086A0004FF0000B5B4603220121CDF800B0584685
:1086B0001BF01EFD38461FF0A9FEB36806463E4873
:1086C000A3EB0A0AA8FB000139A3D3E90023FDF7B5
:1086D00023FF19463D4B08933D4B069340F26D3303
:1086E000079709933B698046CDE904B31046002300
:1086F0004FF47A72FDF710FF364B0722A9FB0331C6
:10870000CDE9028002FB0911E01A65EB01014FF48B
:108710007A720023FDF700FF0536F6B2CDE900902E
:1087200053463246012158461BF052FC10F0FD0F13
:108730000CD0234A2349244840F26E3334F09EF98A
:10874000404080F311884FF0030002DF0122022134
:1087500010460DB0BDE8F04F1AF032B904F11E0119
:1087600026F0C8FAA37FBDF82C200A98C4F825008B
:108770000233A377A9F8042017E7114A16491248D3
:1087800040F2BD2334F07AF9404080F311884FF075
:10879000030002DFE4E66B7F43F040036B77281DA4
:1087A00026F0A0F84FF00108E88328E7AFF3008037
:1087B0008D49FD1A0700000000CA9A3BEDE4040051
:1087C000786C0600EC660600585F0600F1E40400D1
:1087D00021E504008D49FD1A286306000000000011
:1087E0000538C3B2052B0CD870B580B20D461FF00A
:1087F00015FE044618B190F93930002B03DA002039
:1088000070BD0020704790F876000F4EC0F3C00195
:1088100000F0070027F04AFE0C4A00F2B55007218D
:10882000E0FB0621104606A3D3E90023FDF774FE02
:1088300020F07F402860204670BD00BFAFF300806D
:108840008D49FD1A0700000000CA9A3B8C49FD1AA9
:108850002DE9F04F93B0FF240B930B1D0A930023D7
:10886000CDE90E33054616468DF837409B464FF04E
:10887000040A1F469946984610AB0693564B05933B
:10888000564B03930FAB01930EAB002000930223D2
:1088900010930490029033460DF1370229461BF0E5
:1088A000ADFC022815D0109BCBB9FF2C26D0336825
:1088B000BB4223D0BAF1000F40D00AF1FF3AFF24A7
:1088C0005FFA8AFA8DF83740D6E7294600201BF078
:1088D000E1FC109B022BF8D0109B002BE5D0404A06
:1088E000404941484FF4F77334F0C8F8404080F3F2
:1088F00011884FF0030002DFFF2CD8D19DF837001C
:10890000FF2829D011A9FFF76BFF0028B4D0FF2C56
:108910000E9F119B0AD04146384609931BF0D4FCA8
:108920000A9B03EB09029042099B17D8B8469DF8B1
:1089300037403768DDF83CB099469DE72B49284A17
:1089400029484FF4FB7334F099F8404080F31188C4
:108950004FF0030002DFB0E7FF2C34D0244807219A
:10896000A9FB000301FB093119A3D3E90023FDF79B
:10897000D3FD044600B140341E4AABF57423A3F581
:108980001073934216D81A480721A8FB000301FB75
:1089900008310FA3D3E90023FDF7BEFD164BA3FB5F
:1089A0000B2304EB93440B9B044400201C6013B086
:1089B000BDE8F08F0BF1E87B0BF5D43B08F1FF38F5
:1089C0000BF5A57BDFE76FF0090013B0BDE8F08F72
:1089D00000CA9A3B00000000FDE7040001E8040023
:1089E000C46C0600086D0600585F0600106D060096
:1089F0008D49FD1ABFBDF07F83DE1B4300000000E0
:108A00002DE9F043C668476873683D491A68D0F895
:108A10000090A7F57423A3F510738B4283B08046B2
:108A200007D907F1E87707F5D43709F1FF3907F5DA
:108A3000A57773681169DD89CDF8049006F11003FC
:108A400001AA0220FFF704FF00284ED10199A1EBF3
:108A500009031B0237D4084649461BF035FC034680
:108A600028480721A3FB000201FB032122A3D3E92D
:108A70000023FDF751FD34690444002C346109DB07
:108A800040F2E24305FB03F3A3422FD2E41AA342D0
:108A9000FCD33461D8F800301A48A3EB0903A3FBD8
:108AA0000002072101FB032113A3D3E90023FDF7F3
:108AB00033FD154BA3FB0737A0EB974020443061F3
:108AC00003B0BDE8F08348461BF0FEFB03460D48AB
:108AD0000721A3FB000201FB032107A3D3E9002325
:108AE000FDF71AFD3469241AC7E73469002CD1D187
:108AF00003B0BDE8F08300BF00CA9A3B000000004D
:108B0000BFBDF07F8D49FD1A83DE1B4300000000CE
:108B100010B5334C3349002304F1FF3C14F83320E3
:108B2000072A02EB820E05D811F83E206FF345129A
:108B300001F83E201CF833206FF300020CF83320BC
:108B40000133082BEAD1284A284C002313700A78F5
:108B500063F300020A7091F8282063F3000281F8A1
:108B6000282091F8502063F3000281F8502091F8FA
:108B7000782063F3000281F8782091F8A02063F355
:108B8000000281F8A02091F8C82063F3000281F868
:108B9000C82091F8F02063F3000281F8F02091F8EA
:108BA000182163F3000281F81821114A9FED0A7B16
:108BB0001370104B83ED007B0F4B236028B1BDE891
:108BC00010400E490E483AF0DCB8BDE810400C48A1
:108BD0003AF0E5B8AFF30080FFFFFFFFFFFFFFFFB4
:108BE0005DA600201CA5002067BA00202CA4002050
:108BF00066BA0020A06E0020A0BB0D00BDF40400EA
:108C0000706E0020000000002DE9F04F8FB00DF1D4
:108C100037010446DFF8E0A0DFF8E0800DF1360010
:108C20001CF00EF99DF836309DF837B00B931BF011
:108C300049FBDAF80060A6FB085629A3D3E9002314
:108C40000027814631462846FDF766FCCDE90777C7
:108C5000069420F07F44DAF80400234B0593A0FB30
:108C600008011FA3D3E90023FDF756FC1F4B20F09A
:108C70007F40A4FB0331072202FB0411CDE90370FE
:108C8000E81A66EB01014FF47A720023FDF744FC09
:108C90000097CDE901404B460B985A4603211BF043
:108CA0007BF910F0FD0404D06FF08B000FB0BDE82D
:108CB000F08F0F480F4A002331F0DAF820B9DAF8C4
:108CC0000C000FB0BDE8F08F9DF837209DF83600FE
:108CD0000094234603211BF00BFA6FF07300E5E7C5
:108CE0008D49FD1A070000000DFC04008D49FD1A96
:108CF000D0A60020447B0B00E8A6002000CA9A3BC7
:108D000038B50F4D04461BF0DDFAA9681BF0DCFAFC
:108D1000696803460B48B3FBF4F4A1FB00011C4453
:108D200005A3D3E90023FDF7F7FB20F07F40844241
:108D300094BF0020012038BD8D49FD1A07000000B6
:108D4000E8A6002000CA9A3BF0B5C468636883B007
:108D50000546002B63D129F02DFB082029F050FB9C
:108D60000021084629F03EFB00222521082029F099
:108D70007DFB454B019301A829F060FB434940F27C
:108D80005B6029F00BFC237AC3F3420262F3061303
:108D90002046237227F096FF26F0B6FE58BB637A72
:108DA0009B071FD127682E68384627F01DFB064415
:108DB0006A6806F10901012029F04AFD29F036FE12
:108DC00020461EF0B1FE811C3246C9B2384627F05B
:108DD00019FB054670BB204627F0A0FA88B9002091
:108DE00003B0F0BD012026F003FA4178821C007820
:108DF00029F0CEFCD6E7607A10F0030018BF0120FE
:108E0000F1E7234A2349244840F22C4333F036FE4D
:108E1000404080F311884FF0030002DFDFE793F852
:108E200020309A0797D01D48214629F081FA29F071
:108E30006FFBD4E7164A1A49174840F2144333F03F
:108E40001DFE184B0721A5FB030301FB05310CA3F5
:108E5000D3E90023FDF760FB13490246134833F0C2
:108E60000DFE404080F311884FF0030002DF1048F0
:108E7000214629F05DFA29F04BFB6FF08B00AFE73C
:108E800000CA9A3B00000000D6BE898E5555550099
:108E9000E0700600C4600600585F06008D050500FE
:108EA000D85F06008D49FD1A9071060064710600B6
:108EB00095080500000000002DE9F041C46894F910
:108EC0001630002B8CB0C0F2FF80636805460E465A
:108ED000002B40F0EE80A37D6FF30003A37529F013
:108EE00069FA082029F08CFA0021084629F07AFA5C
:108EF00000222521082029F0B9FA01201CF0A2F84F
:108F00000746002800F0C78007F11C0029F0D8FAB6
:108F1000874B0B930BA829F091FA864940F25B60CE
:108F200029F03CFBA07DC0F34100253027F07CFAFE
:108F30008148214629F0FCF9A37D9B0603D4636890
:108F4000002B00F0A580962029F076FC00231A461D
:108F50001946184629F088FB26F0D6FD002838D19E
:108F6000A37D13F0180F59D1D4F800802F68404624
:108F700027F03AFA07446A6807F10901002029F04E
:108F800067FC29F053FD29F0DFFB20461FF018F89D
:108F9000011DC9B240463A4627F034FA80460028FF
:108FA00040F0998016B9636A002B4ED1636843B1D3
:108FB000624B0122022100209D6019F037FD00283C
:108FC00035D1204627F0AAF9D0B900200CB0BDE871
:108FD000F081A07DC0F3C00026F00AF907460DF12C
:108FE0002B0026F009FC79788046BA1C387829F0E5
:108FF000CFFB9DF82B000022414629F0E7FDB3E7A7
:109000004F4A5049504840F20B2333F037FD40405F
:1090100080F311884FF0030002DFD6E7012026F02D
:10902000E7F84178821C007829F0B2FB9CE7444ABB
:109030004649454840F2062333F020FD404080F386
:1090400011884FF0030002DFBBE7414A0792414A13
:10905000059240F2F31200930892CDE90366CDE940
:10906000016606943B46314603221AF095FF10F044
:10907000FD0F9BD0324A384933484FF4FA7333F02E
:10908000FDFC404080F311884FF0030002DF8DE7C4
:1090900029F04AFB60E72A4A30492B484FF4C57350
:1090A00033F0ECFC404080F311884FF0030002DF06
:1090B0002AE7636893F82030D90705D4636893F8EA
:1090C00020309A077FF507AF2548214629F030F96F
:1090D00029F01EFA79E71A4A22491B4840F2E513A3
:1090E00033F0CCFC204B0721A8FB030301FB083124
:1090F0000DA3D3E90023FDF70FFA1C4902461C48D3
:1091000033F0BCFC404080F311884FF0030002DFD5
:109110001848214629F00CF929F0FAF96FF08B0074
:1091200054E700BFAFF3008000CA9A3B0000000084
:10913000D6BE898E55555500199202004C1200205A
:109140009C710600C4600600585F0600CC600600F3
:109150000D140500AD140500686406002C710600AE
:109160008D050500D85F06008D49FD1AE8710600DF
:1091700064710600E912050038B5044628F064F869
:10918000A37DA27DC3F34103013303F00303032B4B
:1091900008BF002363F3420214BF03F1250025201A
:1091A000A27527F041F963680BB123694BB91BF035
:1091B00089F8C11C002029F0BFFBBDE8384029F028
:1091C00035BC29F0E7FB05461BF07CF8C11C0020EC
:1091D00029F0B2FB29F02AFC29F0DCFB29461BF020
:1091E00073F80B4A03460721A0FB020201FB03218F
:1091F00005A3D3E90023FDF78FF923691B1A236127
:1092000038BD00BFAFF3008000CA9A3B00000000E9
:109210008D49FD1A000000002DE9F0478AB0044690
:1092200029F0A8F9C0B250B927F056F9C448214630
:1092300029F07EF80AB0BDE8F04729F069B929F0B5
:10924000B9F9054629F0D8FA074629F0DFFA814630
:1092500029F016FD064629F0F5FC824629F08EFA23
:10926000EDB2804629F06EFA27F036F9002DDDD0F8
:1092700001201BF0E7FE0546002800F04D8117F0A5
:10928000FF07F6B240F0E380002E40F0DA804FF0A6
:10929000FF093A464B463146204628F0FBF90028A4
:1092A000C4D02A7F616800238DF823305FFA88F7E5
:1092B00002F00F03002900F0EC80616891F82010A3
:1092C000880700F1E680072BB0D0A17D090740F1A7
:1092D0004381002B40F0C4806B7F063B1F2BA5D839
:1092E00004201BF0AFFE0028A0D029F0A7FB636A82
:1092F000074643B9238C40F2712202FB03F3B0FB13
:10930000F3F203FB120723681A698E4B0721A2FBB5
:10931000030301FB023188A3D3E90023FDF7FCF826
:109320006FF44A7C00EB0C03BB42FFF47FAF29F0E3
:10933000FBF94846636826F045FAE37D99078046C5
:1093400040F1E581002800F0E2818246012729F002
:109350003FF9CDE9027A09AB049305F11E030193AD
:109360002B7FC3F38013014607460093002201239D
:10937000204628F0A9F9384629F0A8F829F0F0F895
:10938000002840F0CA817048214628F0D1FF626869
:1093900092F8203043F0010382F82030A37D43F09F
:1093A0008003A3751BF070FE172202714FF6FF7247
:1093B000C28095F81CC082463B46CCF3401C00F1AD
:1093C0001C0207F1200E1D6858689968DF68D76095
:1093D0001033734515605060916002F11002F2D1B4
:1093E0001B6813609AF81C30CAF808406CF34513E8
:1093F0008AF81C3029F0CEFA002ECAF81000099B1A
:10940000CAF8143008BF4FF0FF098AF81990E37DBD
:1094100013F0020303D0B8F1000318BF01239AF838
:109420001A2063F300028AF81A201BF02DFECAF8F6
:109430000C00DAF8000051460AB0BDE8F0471BF016
:1094400051BE5FFA8AF026F04BFA814621E7A07DF3
:109450005FFA89F1C0F3C00026F0D8F9814618E719
:10946000012B40F089806A7F0C2A7FF4DFAE2A7FCF
:10947000CDF80090194600230193D20905F1240389
:10948000204628F05BF800287FF42AAF2B7F03F0FA
:109490000F03002B70D16B7F052B7FF6C7AE252BFA
:1094A0003FF6C4AEA27D02F02102202A09D16268F3
:1094B000002A00F0C180052B7FF6B8AE252B3FF6C1
:1094C000B5AE63682BB12B7F03F00F03072B7FF43E
:1094D000ADAE03209DF823801BF0B4FD05460028A7
:1094E0003FF4A4AE1BF0D0FD4FF6FF73EB800523D5
:1094F0002B71002F3CD17F20AB7E2876002E08BF39
:109500004FF0FF0968F34103286885F81990AB769E
:1095100029461BF0E7FD89E60C4A0D490D4840F24B
:10952000C72333F0ABFA404080F311884FF00300BB
:1095300002DFA4E6AFF3008000CA9A3B00000000FF
:10954000011305008D49FD1AF11405009C710600F8
:109550002C710600585F0600B9F1FF0F8DF82490BA
:10956000C2F380184BD0227E91453FF4B2AE90E713
:1095700029F0F4F8C0B2BFE7062B8CD04521D940C2
:1095800011F0010139D1012B10D16B7F0C2B7FF42D
:109590004DAE2A7FCDF800900DF123030193D2093F
:1095A00005F12403204627F0C9FF08BB2B7F03F0F9
:1095B0000F03042B7FF43AAE6B7F063B1F2B3FF665
:1095C00035AEA37DDB077FF531AE29F001F82B7FA7
:1095D0000278C3F38013B3EBD21F7FF427AE0830B9
:1095E000062205F11E013AF0DBF800287FF41EAEDA
:1095F0006B7F002B7FF465AF18E66B7F5BE705F1AF
:109600001E0A09AA5146404626F020FA00283FF4D7
:109610003DAFE37D03F0010343457FF437AF51468F
:10962000062204F108003AF0BBF800287FF42EAFC0
:109630002B7F03F00F034CE69620079229F0FCF8ED
:10964000079A104628F0C8FF03201BF0FBFC804659
:1096500000283FF4EBAD1BF017FD4FF6FF73A8F8A1
:109660000630052388F80430002F64D17F23002EB4
:1096700088F8183014BF4B46FF2388F8193098F843
:109680001A30D8F800006FF3410388F81A304146C9
:109690001BF028FD28F09CFF06460322337862F376
:1096A000030333702B7F3278C3F3801363F3C71245
:1096B0000C2332704846737026F084F8E27D9207DE
:1096C0003DD500283BD03178324641F0400102F8C8
:1096D000021B0168C6F8021083889380D5F81E30FB
:1096E000B3606B8CB381304628F0F0FE28F038FF71
:1096F000002835D129F09AF9A37D204843F00103D1
:109700002146A3750AB0BDE8F04728F011BEA77D39
:1097100004F1190AC7F3801719E6194A19491A48BA
:1097200040F2A44333F0AAF9404080F311884FF08F
:10973000030002DF27E629F011F8C3B297E7A37D03
:109740003278C3F3801363F38612334603F8022B97
:10975000D4F81920C6F80220B4F81D209A80BDE77D
:10976000074A084908484FF4A56333F087F9404099
:1097700080F311884FF0030002DFBBE715130500EB
:109780009C71060034710600585F0600000000005E
:109790002DE9F041C468A2894FF6FF739A4282B066
:1097A00000F0C780054628F093F82B89628AE08A8A
:1097B0001A4492B21044637FA28280B2411CE182BB
:1097C0005E064FF00001618204F1180100F18C8007
:1097D00003F03F000B46A17F009004F11F0025F02D
:1097E00039F80646D4E90B231344D4E90D020021CD
:1097F0000244E1626163A16AA26394F872208B4221
:1098000028BF0B4612F00402236377D028F0D2FD64
:10981000082028F0F5FD201D28F010FE2389A17AEC
:1098200040F25B6043EA014128F0B8FE304626F082
:10983000FBFD2146584828F07BFD962028F0FCFFD0
:1098400094F85A2094F85B00C2F3C003002102F0A0
:10985000070200F0070028F007FF204628F09AF8DA
:1098600027682E68384626F0BFFD06446A6806F170
:109870000901002028F0ECFF804629F0ABF8002019
:1098800029F0C2F8236B94F85B0003F13002A36B5C
:1098900000F00700012103EB420528F025FE4544B6
:1098A000054494F85B0000F00700022824D0042847
:1098B0000CBF4FF4BC73282301211D4428F016FE71
:1098C000284429F079F8A18905313246C9B23846D1
:1098D00026F098FD054698BB204626F01FFDD0B91E
:1098E000002002B0BDE8F0810A4603F03F03E18B9F
:1098F00024F0FCFF064675E71823DDE7D4E91701DD
:1099000019F026F8002881D194F8723043F004034E
:1099100084F872307AE7214A2149224840F25513EF
:1099200033F0ACF8404080F311884FF0030002DFC1
:10993000D6E71D48214628F0FBFC28F0E9FDCFE7DB
:10994000164A1A49174840F24B1333F097F8184B50
:109950000721A5FB030301FB05310DA3D3E9002378
:10996000FCF7DAFD13490246134833F087F840400C
:1099700080F311884FF0030002DF1048214628F0E1
:10998000D7FC28F0C5FD6FF08B00AAE7AFF300808D
:1099900000CA9A3B00000000ED1B0500687206003B
:1099A000C4600600585F06008D050500D85F0600FC
:1099B0008D49FD1ABC720600647106006905050038
:1099C000F0B5C468A2894FF6FF739A4285B000F0E3
:1099D0008B80054627F07CFF2B89628AE08A1A4437
:1099E00092B21044637FA28280B2411CE1825E0683
:1099F0004FF00001618204F118015FD403F03F00D1
:109A00000B46A17F009004F11F0024F023FF0646BF
:109A1000204603A928F08CF8039B94F872101A785A
:109A200061F3C3021A70039A94F872301178C3F389
:109A3000400363F38201117028F0BCFC082028F079
:109A4000DFFC201D28F0FAFC2389A17A40F25B603C
:109A500043EA014128F0A2FD304626F0E5FC0399D7
:109A6000204628F039F82146374828F061FC962036
:109A700028F0E2FE94F85B0000F0070028F0ACFD4F
:109A800027682E68384626F0AFFC06446A6806F15F
:109A90000901012028F0DCFE28F0C8FFA18905316A
:109AA0003246C9B2384626F0ADFC054618BB204602
:109AB00026F034FC50B9002005B0F0BD0A4603F092
:109AC0003F03E18B24F012FF0646A1E71F4A20491D
:109AD000204840F2031332F0D1FF404080F3118858
:109AE0004FF0030002DFE6E71B48214628F020FC88
:109AF00028F00EFDDFE7154A18491648F92332F021
:109B0000BDFF174B0721A5FB030301FB05310CA388
:109B1000D3E90023FCF700FD12490246124832F057
:109B2000ADFF404080F311884FF0030002DF0F4883
:109B3000214628F0FDFB28F0EBFC6FF08B00BBE723
:109B400000CA9A3B00000000211A0500C8720600F6
:109B5000C4600600585F06008D050500D85F06004A
:109B60008D49FD1A18730600647106006905050029
:109B70002DE9F0472DED028B9FED498B4A4E84B0C5
:109B800004464FF02003EFF3118783F31288BFF3ED
:109B90006F8FD4F8C8508DB9022104F1E00039F07C
:109BA00039F8002843D100238DED008B029304F196
:109BB000D00239463D4830F039FEE2E7D4F8CC20F7
:109BC0002B68C4F8C830954208BFC4F8CC30D4F82C
:109BD000E03043F00203C4F8E030EB6823F0040304
:109BE00043F00103EB606B6887F31188BFF36F8F5D
:109BF000284698474FF02003EFF3118983F312882A
:109C0000BFF36F8FEB68990723F0010219D4EA6064
:109C1000D4F8E03023F00203C4F8E03089F311886F
:109C2000BFF36F8FDB05ACD430F0E0FCA9E704F1A3
:109C3000D80500220121284639F0F2F90028F8D190
:109C4000B1E7306823F00303EB600028E0D0002781
:109C5000D0F80080BA460028DAD042689542014622
:109C60000BD1016897B972683160824200D171608E
:109C700040F808AB30F0D6F83946B8F1000F0BD0F9
:109C8000D8F8002040460F469046E4E739607268F5
:109C9000824208BF7760EBE74246F3E7AFF300800C
:109CA000FFFFFFFFFFFFFFFF60B7002095BA002016
:109CB000F8B510EE904A34F000472DED048B10EE0D
:109CC000103AB0EE609A0DD183F480035B0013F577
:109CD000000F40F2098230EE098AB0EE480ABDEC6E
:109CE000048BF8BD23F00040B0F1FF4F02D8B7F16C
:109CF000FF4F08D9B3F17E5FEDD184F48004640096
:109D000014F5000FE5E7002B01462DDAB7F1974F68
:109D10000CD3B7F1FF4F2AD00225B4F17C5F41D1BB
:109D2000002BC0F28F80B1EEC08AD6E7B7F17E5F1C
:109D300031D3FA15C2F1960247FA02F505FA02F29A
:109D4000BA423DD1B7F17E5F4AD1002C80F2D28178
:109D5000B5EE400AF1EE10FA50D1D80FBDEC048BED
:109D6000BDE8F84031F0E8BBB7F1FF4F3DD1B0F1AD
:109D70007E5F00F0B98108D9DFED977A002CB4BF7F
:109D8000B0EE678AB0EE498AA7E7002C80F2AF8177
:109D9000B1EE498AA1E7B4F1804F34D0B4F17C5FD1
:109DA0005CD0002523F04042B2F17E5FB0EEC08A65
:109DB0003FD1002CBCBFB7EE007A87EE088A29E0BD
:109DC000B7F17E5FC1D00025B4F1804FEAD1B0F188
:109DD000BF4F1AD2B0F1D05F29D920EE008A7CE7BC
:109DE00005F00105C5F10205EEE7B7F17E5FACD0E5
:109DF000B4F1804F4FF00005E9D08EE7B7EE007A5E
:109E000087EE008A69E70025E1E7B0F1FF4FB0EE89
:109E1000C08A35D1002BBFF660AFA0F17E50284339
:109E200016D1BDEC048BBDE8F84031F093BBB0EE29
:109E3000C08A28BB002C1EDA002B8FDA6B1E58421A
:109E400058418BE7B0F1FF4FB0EEC08A40F055812A
:109E5000012D7FF442AFB1EE488A3EE7B0F1FF4FEB
:109E6000B0EEC08A3FF439AFB0F17E5FD9D00028A0
:109E70003FF433AFD5E7012D08BFB0EE408A2CE7A1
:109E8000DE0F013E55EA0602CBD0B7F19A4F40F201
:109E90004081524B984208D8002C0BDA0020BDECD0
:109EA000048BBDE8F84031F039BB4D4B984208D9DE
:109EB000002CF3DC0020BDEC048BBDE8F84031F051
:109EC0001FBBB7EE007A38EE478ADFED467ADFED4A
:109ED000469A3FA1D1E9000168EE278AFCF7CCFA47
:109EE00007EE900AB5EE007A48EE477AB6EE007AB1
:109EF00007EEC87A68EE087ADFED3C6A27EE277A2B
:109F0000F0EE687A47EE667A68EE299A39EEA77A1B
:109F100017EE103A23F47F6323F00F0307EE103A95
:109F200077EE699A77EEE97A013D24F47F64354350
:109F3000B7EE007A24F00F04BFEE008A18BFB0EE2F
:109F4000478A07EE104A67EE890A39EE477A07EE2C
:109F5000903A47EE270A07EE104A67EE877A30EE0E
:109F6000A77A17EE101A002921F000431ADDB3F189
:109F7000864F09D9B5EEC08AF1EE10FA4CBF012028
:109F800000208CE70120E5E036D1DFED196A37EEDD
:109F9000677A70EEA66AF4EEC76AF1EE10FAE9DCB1
:109FA00086232DE0134A934207D9B5EEC08AF1EE1D
:109FB00010FA4CBF012000207DE71DD137EE677AF3
:109FC000B4EEE07AF1EE10FAEADBEEE7AFF30080F0
:109FD000E13D55555555D53F00000000F3FF7F3F4B
:109FE0000700803F70A5EC3600AAB83F3BAAB83FF7
:109FF0003CAA383300001643B3F17C5F6FD9DB1500
:10A000007E3B4FF4000018410844C0F3C753A04AF8
:10A010007F3B1A41024007EE102AC0F3160040F4BD
:10A020000000C3F117031841002977EEC77AB8BFC3
:10A03000404237EEA07ADFED976ADFED975A9FED49
:10A04000976A17EE103A23F47F6323F00F0307EEAD
:10A05000103A77EE677A67EE266A70EEE70ADFED70
:10A06000907A67EE277A9FED8F7A40EE877AB7EE87
:10A07000000A36EEA77A77EE666A77EEE67A67EE42
:10A08000076A47EE277A16EEA56ADFED875A46EE95
:10A09000265A9FED866A15EEA66ADFED855A46EED2
:10A0A000265AB0EE476A05EEE66AF0EE006A67EE01
:10A0B000065A36EE666AC5EE866A76EEE77A77EE7F
:10A0C000C77A30EE670A10EE103A03EBC053B3F5CF
:10A0D000000F06DA31F0CEF920EE088AFDE5002007
:10A0E000A7E700EE103AF7E7B7EE008AF5E59FED37
:10A0F000718AF2E5B0EE408AEFE5B0F17E5F3FF4A1
:10A100008CAE00283FF4B7AE002D3FF48AAE022596
:10A11000002613F0FF4F08BF9FED677A674802BF24
:10A1200068EE077A6FF0170317EE901A4FEAE152C4
:10A1300018BF00237F3A1A44C1F31603834243F049
:10A140007E5106DD5E4883427FF71CAF0132A1F5E8
:10A15000000100205B4B03EB8003D3ED005A5A4B08
:10A1600006EE101A75EE867AF7EE006AC6EEA74A7A
:10A17000491041F0005101F5802101EB405136EECC
:10A18000657A07EE901A27EE245A15EE107A1F40D2
:10A1900006EE907A06EEE77A77EEE57ADFED4B5A37
:10A1A00036EE676A65EE057A06EE667A9FED486AD6
:10A1B00047EE865A9FED476A05EEA76ADFED465ADD
:10A1C00046EE275A9FED456A05EEA76ADFED445A31
:10A1D00046EE275A27EE247A36EE856A67EEA77A8E
:10A1E00026EE076A05EEA76A66EEA64AF0EE085A62
:10A1F00074EEA57A77EE867A17EE901A194007EE7C
:10A20000901A77EEE55A27EE277A75EEE45A66EE55
:10A21000A76A36EE656A06EE057A9FED326A76EE3B
:10A22000877A17EE901A194007EE901A77EEE66AD1
:10A2300027EE866A37EE667ADFED2B6A2B4967EEEA
:10A24000A67ADFED2B6A47EE267A01EB800191EDCD
:10A25000007A77EE877A07EE102A264A02EB800210
:10A26000D2ED005A76EE276AB8EEC77A76EEA56A86
:10A2700076EE876A16EE902A134006EE903A36EE96
:10A28000C77A37EE657A37EE467A77EEC77A4BE6CD
:10A29000000080FF0072313F4CBB31330EEADD35E8
:10A2A0008CBEBF351872313F55B38A38610B363BCF
:10A2B000ABAA2A3E000000000000804B71C41C00C5
:10A2C000D6B35D009077060000F0FFFF55326C3E7C
:10A2D00042F1533E05A38B3EABAAAA3EB76DDB3ECF
:10A2E0009A99193F0038763FA0C39D3680770600C3
:10A2F0004F38763F8877060001482FF095BE00BFA3
:10A300005804002001482FF08FBE00BF48040020F1
:10A3100007B538F0C2FE4FF47A72A0FB020302FBCD
:10A320000131C00B074A40EA4140106000234FF45E
:10A3300000420548CDE9002330F056FC002003B070
:10A340005DF804FB90730020F0160020014B187894
:10A3500000F010BD7AB80020044B1A78824202D077
:10A360001870FFF7F3BF0020704700BF7AB80020D5
:10A3700008B538F092FE4FF47A72A0FB020302FB9C
:10A380000131084AC30B126843EA41439B1A47F262
:10A390003052934204DDBDE808400120FFF7DCBFE6
:10A3A00008BD00BF9073002008B538F076FE4FF46A
:10A3B0007A72A0FB020302FB0131C00B044A40EA9F
:10A3C00041401060BDE808400020FFF7C5BF00BF56
:10A3D00090730020014B1878704700BF7AB80020B6
:10A3E0002DE9F04F1C4D1D4CDFF878A0DFF878B058
:10A3F00083B0641BA40800AF0026A946B44204DC65
:10A4000000200C37BD46BDE8F08F0136B04644450C
:10A4100001D10435F2E72B6859F828201B68116830
:10A420007B601846FCF7E2F97B6890B9C7F804D066
:10A4300088B06A46C2E905A34FF40073938342F8DB
:10A4400010BF4FF4E2510346054809F05FFED7F80C
:10A4500004D008F10108DAE750090700B409070041
:10A4600074410600CC77060003000001F8B50446ED
:10A4700010B900252846F8BD0378002BF9D00F4EFF
:10A480000F4FBE420FD30D4EBE42F2D2306838F0AD
:10A4900015FA30B1356821462868FCF7A7F900287D
:10A4A000E8D00436F0E7306838F008FA18B13568BB
:10A4B0002B68A342DED00436E3E700BF5009070053
:10A4C000B409070082B02DE9F04F99B006AF07F14B
:10A4D000700181E80C00164607C807F10C0585E8F5
:10A4E000070097F888A0D7F8749097F88080FFF756
:10A4F000BDFF8346C0B96C4688B006AA544BD661EE
:10A50000C2E90539042342F8103F4FF402510346D3
:10A51000504809F0FBFDA546012420464C37BD46B6
:10A52000BDE8F04F02B07047C7E91C6907F1700C35
:10A53000BCE80F0007F118040FC487F880809CE87E
:10A54000030084E80300C7E9066987F8288007F15B
:10A55000180EBEE80F0007F1300CACE80F0094E8CD
:10A5600003008CE80300F868FFF780FF83685C68ED
:10A5700007F1300CF4B107F1480313E90F00C7F8F5
:10A5800004D08DE80F0028469CE80C00A047044644
:10A5900080B188B006AA304BC2E90530032342F8E7
:10A5A000103F2C4800234FF4C25109F0AFFDD7F8FB
:10A5B00004D0B2E7DBF808301B78012B12D0022B55
:10A5C0002BD0002B41D187F88080C7E91C6907F1A7
:10A5D0007803CDF810A00FCB8DE80F0007F17003C2
:10A5E0000CCB10E0C7E91C6987F8808007F178037D
:10A5F000CDF810A00FCB8DE80F00B8F1FF0F07F1D9
:10A6000070030CCB03D1284630F0F5FF03E0294658
:10A61000404607F09FFC04467FE7C7E91C6987F8BE
:10A62000808007F17804CDF810A094E80F008DE841
:10A630000F0007F170030CCB2946002007F08AFCBD
:10A64000CDF810A094E80F00C6E76FF0850464E72A
:10A65000F7770600744106001E7806001FB50A4C05
:10A660002468A46884420DD183F00103CDE901126E
:10A67000039306480022002301A92FF039FA044869
:10A680002FF0D2FC04B010BD30740020A4180020BC
:10A69000207400202DE9F04FDFF80081DFF80091F1
:10A6A000384E8DB002AF00220023391D40462FF0F6
:10A6B00075FA834618B12C37BD46BDE8F08FD9F83E
:10A6C0000030FC685868D7E9011230F0E8FF2E4BE3
:10A6D000002C18BF3346051ED7E9010115DA6C4678
:10A6E0008AB002AA294DC2E9071340F202439384BB
:10A6F000274BC2E9055042F8103F26485B464FF40D
:10A70000325109F003FDA546CDE7EA468CB002AA16
:10A71000DFF890C0C2F814C09362DFF88CC040F23A
:10A72000046393851C4BC2E906C0C2E9081542F8D0
:10A73000103F18485B464FF47451B4FA84F409F0A2
:10A74000E5FCFF236409D5463B747D613C7638F017
:10A75000A4FC4FF47A72A0FB020302FB0131C00B90
:10A7600040EA4140C90BC7E9080107F1280313E992
:10A7700003008DE8030007F110030FCB00F014FB7A
:10A7800091E700BF647806005F7806006A780600EB
:10A79000050000017441060007000001A418002014
:10A7A00030740020A0780600547906001FB50023FD
:10A7B000CDE90233044B8DF80C0001A8019330F071
:10A7C00095FF05B05DF804FB884406000268034B62
:10A7D0009A420CBF08300020704700BF8844060032
:10A7E000014B03602320704794730020044B1A68C8
:10A7F000044B9A4214BF6FF012000020704700BF54
:10A800003074002074440600F8B5054600AF0028F7
:10A8100038D01E4E3368834232D02BB1986818B1BD
:10A8200083685B6803B1984719491A4B8D4214BF7E
:10A83000ED2100212322002030F04BFF041E12DA0C
:10A840006D4688B06A46144BC2E90534032342F8CA
:10A85000103F124800234FF4C25109F057FCAD4697
:10A860002046BD46F8BDA868356048B183680C49EC
:10A870001B6898473368986883689B6803B198475A
:10A880000024EDE76FF01204EAE700BF3074002007
:10A890007444060094730020D078060074410600CA
:10A8A0005DA6020038B5054648B90648FFF7ACFF7B
:10A8B000041E02DB2846FFF779FF204638BD6FF003
:10A8C0001504FAE774440600B0B5104D034600AF16
:10A8D0000846012229469847041E12DC6D4688B0BE
:10A8E0006A460B4BC2E90534032342F8103F09487E
:10A8F00000234FF4C25109F009FCAD462046BD4685
:10A90000B0BD2878FFF7CEFF0446F7E70E1600200B
:10A91000057906007441060073B50E4614460A49CF
:10A9200001AA1D4632F0ADFF38B1019B3BB9012EA3
:10A9300007D129462046FFF7C7FF02B070BD0020AF
:10A94000FBE76FF01500F8E74B7906000148FFF7C9
:10A950005BBF00BF7444060008B50749074838F0DC
:10A96000CCF9074A002342F8043B0133232BFAD1E8
:10A97000BDE80840FFF7EABF95A60200207400205A
:10A98000947300202DE9F843274E284BA3EB0608CB
:10A9900000AF81460D4606EBC106C8F3C708A845BF
:10A9A00024DD3268D9F800309A420BD189F804507E
:10A9B000736848461B6898470128044605D002285A
:10A9C00019D0E8B901350836E9E76C4688B06A461F
:10A9D000174B5361174B9361032342F8103F1648FE
:10A9E00000234FF4C85109F091FBA54600242046EE
:10A9F000BD46BDE8F8836C4688B06A460F4BE8E771
:10AA00006D4688B06A460E4B53610A4BC2E9063068
:10AA1000042342F8103F084800234FF4045109F082
:10AA200075FBAD46E3E700BFE4EB06007CEC0600F7
:10AA3000BB790600757A060074410600DA790600D3
:10AA4000FA79060070B5144B144CE41A86B0002253
:10AA5000C4F3C70494420EDC114B05930223049304
:10AA60001048002304AA4FF4845109F04FFB6FF003
:10AA7000150006B070BD1E680568AE4202F1010205
:10AA800008D15D688D4205D1D1B206B0BDE87040F5
:10AA9000FFF778BF0833DDE7E4EB06007CEC060047
:10AAA0001D7A06007441060070B5144B144AD21A80
:10AAB00086B00024C2F3C702A2420EDC114B0593FC
:10AAC000022304931048002304AA4FF4845109F090
:10AAD0001DFB6FF0150006B070BD1E680568AE4224
:10AAE00008D15D688D4205D1E1B206B0BDE8704085
:10AAF000FFF748BF01340833DEE700BFE4EB060090
:10AB00007CEC06004C7A06007441060000B58BB060
:10AB1000064B074A2821684630F03CF905490122D6
:10AB200068460BF099F90BB05DF804FB937A0600C8
:10AB30009D7A06007BB8002008B5074B5A784AB9C1
:10AB400001221A700548002200232FF0D5FA04488C
:10AB500000F080F8002008BD7BB80020D81C002041
:10AB6000843D06002DE9F047D0F8048000AF05468B
:10AB700000244FF00109D8F80430A3420ED82B4925
:10AB80002B4838F0FEF8AB681B680BB12846984795
:10AB9000B8F8081000293CD1002035E0D8F8002092
:10ABA00002EBC40352F834001979DB88D0F810C0E6
:10ABB000D0F808A0DCF80060DA0754BF43F4B01303
:10ABC00083F4D01323F4801209FA01FEDB074CBF93
:10ABD00046EA0E0626EA0E06CCF80060DAF80030E7
:10ABE0009847A0B16D4688B06A46124BC2E9053459
:10ABF000032342F8103F104800234FF4C25109F0DC
:10AC000085FA6FF00400AD46BD46BDE8F08701341B
:10AC1000B1E740F2E7304FF47A72002300EBC13025
:10AC20000021FBF779FC2FF063FDB5E70DAB0200C7
:10AC3000D81C0020B07A06007441060008B54FF415
:10AC4000F012002302482FF08BFA00EAE07008BDF2
:10AC5000D81C0020F8B50669456800AF00246B6871
:10AC60009C4204D301233370FFF7E8FF1BE02B68FD
:10AC700003EBC40153F834000979012230F03EFDA2
:10AC800098B16D4688B06A46094BC2E90534032382
:10AC900042F8103F074800234FF4C45109F036FA38
:10ACA0006FF00400AD46BD46F8BD0134D7E700BFE4
:10ACB000DD7A060074410600F8B50669456800AF04
:10ACC00000246B689C4204D300233370FFF7B6FF67
:10ACD0001BE02B6803EBC40153F834000979002210
:10ACE00030F00CFD98B16D4688B06A46094BC2E958
:10ACF0000534032342F8103F074800234FF4C451A2
:10AD000009F004FA6FF00400AD46BD46F8BD013409
:10AD1000D7E700BF047B060074410600F7B50C4678
:10AD20001646114901AA1F4632F0ABFDB0B1019B96
:10AD3000A3B9012C15D10D4D224629463846B047FE
:10AD4000002806DB2B780A486C7023B1FFF782FFDE
:10AD5000002003B0F0BDFFF7AFFFF9E76FF001008F
:10AD6000F7E76FF01500F4E7937A06007BB8002050
:10AD7000843D06001FB50023CDE90233044B8DF856
:10AD80000C0001A8019330F0B1FC05B05DF804FBA4
:10AD9000AC4406000268034B9A420CBF0830002006
:10ADA000704700BFAC44060084B030B589B00CAC2D
:10ADB00084E80F00002301930CAD084B00930FCDE6
:10ADC00002AC0FC495E8030084E80300684630F045
:10ADD0008DFC09B0BDE8304004B07047B0440600B7
:10ADE0000268034B9A420CBF08300020704700BF36
:10ADF000B044060010B58AB06C4684E80F0000230A
:10AE00000593064B049394E80F000AAC04E90F0085
:10AE100004A830F06BFC0AB010BD00BFB4440600BB
:10AE20000268034B9A420CBF08300020704700BFF5
:10AE3000B444060084B030B58BB00EAC84E80F008B
:10AE4000002301930EAD084B00930FCD02AC0FC44D
:10AE500095E80F0084E80F00684630F047FC0BB01F
:10AE6000BDE8304004B07047B84406001FB5002369
:10AE7000CDE90233044B8DF80C0001A8019330F0AA
:10AE800035FC05B05DF804FBBC4406000268034BCA
:10AE90009A420CBF08300020704700BFBC44060037
:10AEA00080B500AF88B06A46074BC2E9053003237E
:10AEB00042F8103F054800234FF4C25109F026F92B
:10AEC0006FF00400BD4680BDC27B060074410600E1
:10AED00082B010B502A981E80C0004460C482EF09F
:10AEE00041FB28B96068BDE8104002B0FFF7D8BF49
:10AEF0006368022B06D130F03BFC0028CCBF002059
:10AF000001206060BDE81040002002B0704700BF23
:10AF1000937A060082B0B0B500AF07F1100181E866
:10AF20000C0005461F482EF01DFB6B680446B0B9A7
:10AF30006D4688B06A461C49C2E90513032342F8EE
:10AF4000103F4FF4C2510346184809F0DFF86FF084
:10AF50000400AD46BD46BDE8B04002B07047012BCD
:10AF60000AD0022B03D053B930F0FBFBF2E730F0EC
:10AF7000FFFB00282046F7DC30F0ECFBEAE76C46EC
:10AF800088B06A460A49C2E90513032342F8103F14
:10AF9000064800234FF4C25109F0B8F86FF085005D
:10AFA000A546D7E7937A0600C27B060074410600E7
:10AFB000EA7B06002DE9F04F89B002AF0025F8606A
:10AFC000884693461E462C46D8F800309D4201D351
:10AFD00000204FE0D8F80430BB6003EB051999F866
:10AFE0000C30002B41D0DBF8043004F1010A13EBE4
:10AFF000C4040DD07379022B38D1F388082B35D8CF
:10B00000DFE803F006053434343431342F000234E1
:10B01000C7F804D088B002AA184B5361184B93614B
:10B02000FB68D361042342F8103F164800234FF415
:10B03000045109F06BF8FB683B742A01BB687C6122
:10B040009858D7F804D0D9E9012381680C687CB1FD
:10B0500007F1100100913146A04758B90135544617
:10B06000B2E70434D4E70634D2E7A2460024CFE79F
:10B070006FF085001C37BD46BDE8F08F117C0600DF
:10B080004C7C0600744106002DE9F04F87B0136830
:10B0900000AF06460C461546002B5FD000F118089D
:10B0A00001F118024FF0000AF3689A451DD33146AA
:10B0B0002B4611F8040B04F11002FFF77BFF002868
:10B0C0004FDA6C4688B06A46774BC2E905300323F5
:10B0D00042F8103F754800234FF4C25109F016F8AA
:10B0E000A5461C37BD46BDE8F08F58F8089C4FF0C8
:10B0F000000BB9F1000F05D10AF1010A08F110089F
:10B100000832D1E719F0010F04D14FEA59090BF1C8
:10B11000010BEEE75FFA8BF07A6003F0E7FC7A68E8
:10B120000028F2D030782B464146FFF743FF002835
:10B13000C7DB18F8043C7A68002BE6D16B79012B49
:10B1400000F08680022B15D1EB88082B12D8DFE89F
:10B1500003F00B6A11111111781171006FF01200D8
:10B16000AFE70128EAD1BCE701232370AB6862880E
:10B17000134463802B79002BB3D0A379012B13D117
:10B18000B4F90800B4F90A1080EAE07281EAE173C8
:10B19000A2EBE072A3EBE17392B29BB29A428CBF36
:10B1A0000021002000F0E2FB2378012B23D1B4F929
:10B1B0000260B4F9045056EA05031CD02946304613
:10B1C00000F0B4FB03F002F8A8B13E817D8137F0B6
:10B1D00064FF4FF47A72A0FB020302FB0131C00B43
:10B1E00040EA4140C90BC7E9040107F1180313E91C
:10B1F0000F00FFF7FFFD237B002B3CD1637B002B6F
:10B2000045D103F0F3F90021084600F0AFFB00211F
:10B21000084600F08BFB0023A38063802370A3719A
:10B22000A360A3815DE701232370AB68A288134468
:10B23000A3809FE70123A371AB68628913446381F4
:10B2400098E70123A371AB6822891344238191E716
:10B25000EA88A2F5807104298CD852B29340AA687A
:10B26000002ACCBF227B627BDBB2CBBF13431343EC
:10B27000237363737EE70025237BEB40DA0702D557
:10B28000A8B200F08FFA0135052DF5D1B6E70025FB
:10B29000637BEB40DB0702D5A8B200F0CDFA0135A5
:10B2A000052DF5D1ADE700BF287C060074410600EE
:10B2B000024602490248FFF7E7BE00BF7C74002047
:10B2C00028450600024602490248FFF7DDBE00BFDE
:10B2D0006474002018450600024602490248FFF740
:10B2E000D3BE00BF4C740020084506000246024948
:10B2F0000248FFF7C9BE00BF34740020F8440600BE
:10B30000014B1878704700BF80B800202DE9F0414C
:10B31000214A52F8203000AF0133E8468AB042F8A3
:10B32000203006466A461D4C1D4D13621D49516171
:10B330000523C2E906404FF4245142F8103F284645
:10B3400030F023FA184A01231178B3400B43DBB2E3
:10B350001370164A164E127823EA0203154A127821
:10B36000C546134388B096F8018073706A46124947
:10B37000D3610423C2E90514284642F8103F4FF474
:10B38000045130F002FA7078B0EB080018BF0120C9
:10B39000BD46BDE8F08100BFA8740020E47E060031
:10B3A00074410600597C060080B800207EB8002059
:10B3B000261600207FB80020727C06002DE9F0419F
:10B3C000DFF8FC8058F82030002B00AF044613DC77
:10B3D0006D4688B06A46314BC2E9053003233048D8
:10B3E00042F8103F4FF4C25130F0CFF96FF0150022
:10B3F000AD46BD46BDE8F081013B6E468AB048F8D7
:10B4000020306A46274D1362274951610523C2E95E
:10B4100006504FF4245142F8103F214830F0B5F95E
:10B4200058F82430DFF89C80B546B3B988B06A4636
:10B430001E4BD461C2E90535042342F8103F184879
:10B440004FF4045130F0A1F9012298F80030A240E5
:10B4500023EA0203B54688F80030154B154E1A78DA
:10B4600098F80030747823EA0203134A1278E84609
:10B47000134388B073706A461049D3610423C2E94C
:10B480000515074842F8103F4FF4045130F07DF99C
:10B490007078001BC54618BF0120AAE78E7C060005
:10B4A00074410600CD7E0600B87C0600D27C060002
:10B4B0007EB80020261600207FB80020727C06008F
:10B4C000A874002080B80020044A01231278834029
:10B4D000D8B213401B1A58425841704780B8002018
:10B4E000B0B5114B114C1870114B65781A78114B8F
:10B4F0001B7823EA020300AF184388B060706A46E5
:10B500000D4B53610D4BC2E90630042342F8103F46
:10B510000B484FF4045130F038F96078401B18BFE5
:10B520000120BD46B0BD00BF7FB800202616002018
:10B530007EB8002080B80020727C0600AC7E060039
:10B5400074410600B0B5114B114C00221A70114B1A
:10B5500065781A78104B1B7800AF23EA020388B095
:10B5600063706A460D4951610D490E48C2E90613E0
:10B57000042342F8103F4FF4045130F006F960788C
:10B58000401B18BF0120BD46B0BD00BF7FB80020E2
:10B59000261600207EB8002080B80020727C0600AD
:10B5A000897E060074410600B0B5114B114C18702D
:10B5B000114B65781B7823EA0000104B1B7800AF15
:10B5C000184388B060706A460D4B53610D4BC2E959
:10B5D0000630042342F8103F0B484FF4045130F07A
:10B5E000D4F86078401B18BF0120BD46B0BD00BF35
:10B5F0007EB800202616002080B800207FB80020EA
:10B60000727C06006C7E060074410600B0B5104BDB
:10B61000104C00221A70104B104A1B781278657873
:10B6200000AF134388B063706A460D4951610D49FC
:10B630000D48C2E90613042342F8103F4FF40451A9
:10B6400030F0A3F86078401B18BF0120BD46B0BDA4
:10B650007EB800202616002080B800207FB8002089
:10B66000727C06004D7E060074410600A0F1E003E6
:10B67000072B03D82030C0B2FFF748BE064B062286
:10B6800013F8011F19B1013AFAD100207047187060
:10B690000028F8D0F9E700BF28160020A0F1E00349
:10B6A000072B10B405D820305DF8044BC0B2FFF76B
:10B6B00085BE0023064A194612F8014F0133A04205
:10B6C00008BF1170062BF7D100205DF8044B7047BE
:10B6D00028160020A0F1E003072B03D82030C0B2C9
:10B6E000FFF7F2BE064A002312F8011F884204D079
:10B6F0000133062BF8D1002070470120704700BFAE
:10B7000028160020024B00221A605A60704700BFC2
:10B7100027160020B0F5805F10B510D2094900232C
:10B7200001EB4302B2F8014024B10133062BF7D1FB
:10B73000002010BDA2F801000028F6D0F8E76FF055
:10B740008500F6E71916002030B50023074C19468E
:10B7500004EB43020133B2F80150854204BF51703B
:10B760009170062BF4D1002030BD00BF19160020C7
:10B77000024B00221A605A609A6070471A16002025
:10B78000074A002302EB4301B1F80110814204D0C3
:10B790000133062BF6D1002070470120704700BF0F
:10B7A00019160020F8B5042800AF064632D81B4A07
:10B7B00052F820306C4601338AB042F820306A4695
:10B7C000174D1362174951610523C2E906504FF422
:10B7D000245142F8103F14482FF0D7FF134B01209B
:10B7E0001A78B0401043C0B2A5461870104B88B00C
:10B7F00058706A460F4BD061C2E9053504230A48E8
:10B8000042F8103F4FF404512FF0BFFF0020A5462F
:10B81000BD46F8BD6FF01500FAE700BF9474002034
:10B82000327E0600EB7C0600744106007DB80020E5
:10B830000F160020027D06002DE9F041042800AF1C
:10B84000044614D8DFF8DC8058F82030002B13DCD5
:10B850006D4688B06A462C4BC2E90530032342F896
:10B86000103F2A484FF4C2512FF08FFFAD466FF0C2
:10B870001500BD46BDE8F081013B6E468AB048F830
:10B8800020306A46224D1362224951610523C2E9E4
:10B8900006504FF4245142F8103F1C482FF075FF1A
:10B8A00058F82430DFF88080B546B3B988B06A46CE
:10B8B000194BD461C2E90535042342F8103F1348FF
:10B8C0004FF404512FF061FF012298F80030A2409C
:10B8D00023EA0203B54688F80030104A98F8003091
:10B8E00053706C4688B06A460D49D3610423C2E99F
:10B8F0000515064842F8103F4FF404512FF045FF5C
:10B900000020A546B5E700BF227D06007441060071
:10B91000157E0600477D06005F7D06000F1600209D
:10B92000027D0600947400207DB8002080B50B4B8A
:10B9300000AF8AB0588099806A46094B5361094B21
:10B940001162C2E90630052342F8103F06484FF461
:10B9500024512FF01AFFBD4680BD00BF0F160020F6
:10B96000767D0600FA7D06007441060080B50B4B1B
:10B9700000AF8AB01881D9806A46094B5361094BE0
:10B980001162C2E90630052342F8103F06484FF421
:10B9900024512FF0FAFEBD4680BD00BF0F160020D7
:10B9A000967D0600E17D06007441060080B500AF7B
:10B9B00088B06A46094B5361094B9361032342F8EF
:10B9C000103F08484FF4C8512FF0DFFE064B00220D
:10B9D0001A605A601A72BD4680BD00BFB47D060071
:10B9E000CD7D060074410600101600200048704707
:10B9F000261600200048704719160020004870479E
:10BA00000F16002082B0B0B500AF07F1100181E839
:10BA10000C006D468AB07969436804466A460D4851
:10BA200050610D4813620523C2E9060142F8103F38
:10BA30000A4800234FF4245108F068FB0021D7E99D
:10BA400006236068AD462FF0F1FEBD46BDE8B0406C
:10BA500002B07047F97E0600327F0600744106008E
:10BA600082B0B0B500AF07F1100181E80C006D465F
:10BA70008AB07969436804466A460D4850610D48AA
:10BA800013620523C2E9060142F8103F0A48002369
:10BA90004FF4245108F03AFB0121D7E906236068EE
:10BAA000AD462FF0C3FEBD46BDE8B04002B07047C2
:10BAB000F97E0600187F06007441060082B02DE969
:10BAC000F04100AF07F1180181E80C00E8468AB0A8
:10BAD000D7E90845F969436806466A461A4850613D
