:020000022000DC
:1060000080C10020A1DC020045E5040075DC02002F
:1060100075DC020075DC020075DC02000000000087
:10602000000000000000000000000000C5DD0200CC
:1060300075DC02000000000031DD020075DC0200AA
:10604000E5DF0200C5250400E5DF0200E5DF020010
:10605000E5DF0200E5DF0200E5DF0200E5DF020028
:10606000E5DF0200E5DF0200E5DF0200E5DF020018
:10607000E5DF0200E5DF0200E5DF0200E5DF020008
:10608000E5DF0200E5DF0200E5DF0200E5DF0200F8
:10609000E5DF0200E5DF0200E5DF0200E5DF0200E8
:1060A000E5DF0200E5DF0200E5DF0200E5DF0200D8
:1060B000E5DF0200E5DF0200E5DF0200E5DF0200C8
:1060C000E5DF0200E5DF0200E5DF0200E5DF0200B8
:1060D000E5DF0200E5DF0200E5DF0200E5DF0200A8
:1060E000E5DF0200E5DF0200E5DF0200E5DF020098
:1060F000E5DF0200E5DF0200E5DF0200E5DF020088
:1061000053B94AB9002908BF00281CBF4FF0FF311E
:106110004FF0FF3000F00CB8ADF1080C6DE904CE83
:1061200000F008F8DDF804E0DDE9022304B0704770
:10613000704700BF2DE9F04786468C460846089E0A
:10614000154674461946002B40F0C2808542B2FACB
:1061500082F245D94AB1C2F1200300FA02FC2EFABC
:1061600003F3954043EA0C0C94404FEA154EA8B255
:10617000BCFBFEF8230C0EFB18CC08FB00F943EA2D
:106180000C43994528D9EB1808F1FF3704D29945FB
:1061900002D9A8F102072B44A3EB0903A4B2B3FB75
:1061A000FEFC0EFB1C330CFB00F044EA0344A0424F
:1061B00014D92C190CF1FF3304D2A04202D9ACF14E
:1061C00002032C44241A43EA07401EB1D4400023A2
:1061D00034607360BDE8F0874746DDE76346F1E76A
:1061E00092BB431B01214FEA154EAFB2B3FBFEFC3D
:1061F000200C0EFB1C330CFB07F840EA03439845C8
:1062000062D9EB180CF1FF3004D2984502D9ACF1F9
:1062100002002B44A3EB0803A4B2B3FBFEFC0EFB6D
:106220001C330CFB07F744EA0344A7424ED92C1950
:106230000CF1FF3304D2A74202D9ACF102032C4483
:10624000E41B43EA0040C0E7C2F1200320FA03F157
:10625000954090402EFA03F303434FEA154EAFB238
:10626000B1FBFEFC0EFB1C10190C0CFB07F841EAFD
:106270000041884504FA02F422D969180CF1FF3074
:1062800004D2884502D9ACF102002944A1EB0801EF
:106290009BB2B1FBFEFC0EFB1C110CFB07F743EAA3
:1062A00001439F420ED9EB180CF1FF3104D29F42FB
:1062B00002D9ACF102012B44DB1B41EA004192E719
:1062C0006046E3E76146F7E76046A3E76346B7E762
:1062D000834206D916B9002108467BE7C6E900E0EB
:1062E000F9E7B3FA83F78FB9834201D3724508D82F
:1062F000BEEB020460EB030301209C461EB90021A3
:1063000068E73846FAE7C6E9004CF8E7C7F1200C21
:10631000BB4022FA0CF41C432EFA0CF120FA0CF3C9
:10632000B84001434FEA14490EFA07F5B3FBF9F8F8
:106330001FFA84FE09FB18300B0C08FB0EFA43EA27
:1063400000439A4502FA07F240D9E31808F1FF30FA
:1063500004D29A4502D9A8F102002344A3EB0A0310
:1063600089B2B3FBF9F809FB183308FB0EFE41EACA
:1063700003418E452CD9611808F1FF3304D28E45B4
:1063800002D9A8F10203214443EA0040A0FB02988D
:10639000A1EB0E014145CE46434602D306D14D4501
:1063A00004D2B9EB020E68EB04030138002EA6D02C
:1063B000B5EB0E0261EB030101FA0CFC22FA07F3C4
:1063C0004CEA0303F940C6E9003198E74046C5E7C7
:1063D0004346D9E710F8012B11F8013B012A28BFE9
:1063E0009A42F7D0D01A7047034611F8012B03F8F0
:1063F000012B002AF9D17047034613F8012B002A1C
:10640000FBD1181A013870472DE9F041494D88B089
:10641000D5F85C31996811F0010100AF22D107F184
:10642000080240F6034009F011FA044600287BD127
:10643000B868C3681B789BB9BFF35B8FD5F8D430BD
:10644000BFF35B8F05F1D40203F00903BFF35B8F49
:1064500052E8001F42E80034002CF9D1BFF35B8FF3
:106460001EF0A2FF07F10802002141F2030009F02B
:10647000EDF90446002857D1BB682F4EDA68D2F8F0
:106480000100D2F8051003C618461EF08DFF214604
:1064900007F1080241F2010009F0D8F9044600288A
:1064A00042D1B868C3685A7885F870205A88A5F830
:1064B00072201A7985F87120B3F80720A5F87420A6
:1064C000B3F80530A5F876301EF06EFF214607F1CF
:1064D000080241F2020009F0B9F9044620BBD7F8DE
:1064E0000880D8F80C20531C41321868596834468B
:1064F00003C4083393422646F7D1104828F0C1F868
:1065000040461EF051FF95F87C305A061CD40C4BC7
:10651000FB6102230B48BB6107F118024FF4825163
:106520006FF0120428F098F920462037BD46BDE8E8
:10653000F08100BFB00000202801002030010020C1
:10654000976705009426050007F10802002142F232
:10655000030009F07BF904460028E5D1BB68AC4E86
:10656000DA68D2F80100D2F8051003C618461EF00A
:106570001BFF214607F1080242F2020009F066F90A
:1065800004460028D0D1BC68E368B3F8012091B27A
:1065900049B1D97839B1A5F80421DA78114606F164
:1065A00028002AF0F5FF20461EF0FEFE95F87C60DC
:1065B00016F0200618D1022140F66D4009F000F8CF
:1065C0000446002800F0CD8002210C302AF0A6F904
:1065D0000123037046702146324640F66D4009F0B3
:1065E00035F9044600289FD195F89C301B0713D538
:1065F00007F10802002142F21C0009F027F90446C5
:10660000002891D1B868C368D3F80120D3F80530C9
:10661000C5E938231EF0C8FE95F8D8309E0622D56D
:10662000391DB81C09F094F9044600287FF47CAFAA
:10663000042142F2240008F0C3FF0646002800F0BF
:10664000908004210C302AF069F97B880380BB8894
:1066500043802246314642F2240009F0F7F804460E
:1066600000287FF461AF95F8D8305C0611D507F1AA
:106670000802002142F22A0009F0E8F80446002846
:106680007FF452AFB868C3685B7885F820311EF09C
:106690008BFE082142F2010008F092FF0446002818
:1066A0005FD008210C302AF039F995F8D81011F094
:1066B000400F024640F2022308BF032388074CBF65
:1066C00043F02C0043F00C008B0695F8D93048BFFE
:1066D00040F0400013F0090F95F8A23018BF40F4C5
:1066E000006003F00603CE0748BF40F01000062B01
:1066F00008BF40F4C070002128F0BDF821460022F8
:1067000042F2010009F0A2F8044600287FF40CAF21
:1067100095F87C30B5F80411980625D4D1B907F165
:10672000080241F2050009F091F8044600287FF4C0
:10673000FBAEB5F80431BC684BB9E368B3F801208F
:10674000A5F804219A88334811462AF021FF2046F3
:106750001EF02AFE082140F6014008F031FF0446F1
:1067600090B96FF06804DFE60029F3D12A4BFB6192
:1067700002232A48BB6107F118024FF4825128F026
:106780006BF86FF00404CFE608210C302AF0C6F84D
:1067900095F8D830D907024653BF4FF000511AA1DF
:1067A000D1E900011E4828F066F82146002240F693
:1067B000014009F04BF8044600287FF4B5AE0146CD
:1067C0003A1D4FF6014009F041F868B3154BFB61E3
:1067D00002231248BB6107F118024FF4845128F0DC
:1067E0003BF828F04DFA044600287FF49DAE0BF0EC
:1067F000E9FD044600287FF497AE09F07BFD0446CE
:1068000092E600BFAFF30080908800020080002075
:1068100088010020B8010020BB6705009426050010
:1068200010880002DE6705007B68DC68B4F8013080
:10683000032B96BF434A444952F823106D468AB051
:106840006A464248D3614FF400731384404BC2E957
:10685000050142F8103F3F484FF4135127F0FCFF69
:10686000B4F80120B4F80330022AAD4648D1032B16
:1068700046D8394A52F823106D468AB06A463748DE
:10688000D3614FF400731384314BC2E9050142F820
:10689000103F4FF413512F4827F0DEFF6379A6799C
:1068A000D4F80900032BAD4698BF2D4AB4F8075021
:1068B00094BF52F8231024496C468CB06A46DFF826
:1068C000B4C0C2E907364FF400739385254BC2E983
:1068D00005C1C2E909504FF4735142F8103F1D48F9
:1068E00027F0BAFFA54678681EF05EFD3A1D00212C
:1068F0004FF6024008F0AAFF044618B11A4B66E7AB
:106900001149B9E77868194DC368B3F80130A5F8A3
:10691000C1301EF049FD95F8C1305B077FF561AFCE
:106920003A1D21464FF6034008F090FF08B1104B86
:106930004DE77868C3685B7885F8C0301EF034FD99
:106940004FE700BF042F05001A620500026805002A
:106950000400000194260500F42E05001B680500C4
:10696000E42E05000700000160680500B00000206B
:1069700089680500336805002DE9F843D0E90C3536
:10698000D0F82C805C193034A0450F46164619D833
:106990001D4DA3FB05011AA3D3E90023FFF7B0FBAC
:1069A0000346A4EB0800A0FB050123F07F4414A3D9
:1069B000D3E90023FFF7A4FB20F07F403C60306068
:1069C000BDE8F883DFF840900DA3D3E90023A8FBCE
:1069D0000901FFF795FB044605F1300008A3D3E950
:1069E0000023A0FB0901FFF78BFB24F07F4420F07C
:1069F0007F403C603060BDE8F88300BFAFF30080AB
:106A00008D49FD1A0700000000CA9A3B00000000F3
:106A10009FED097B0E4B0F4A0F4983ED007B9FEDE5
:106A2000087B82ED007B9FED087B0C4B002281ED03
:106A3000007B1A6013F01ABAFFFFFFFFFF1F000070
:106A400000000000000000001F0000000000000027
:106A500030020020E03D0020280200208C5500205C
:106A6000002800F046812DE9F04FC94C94F86A20C7
:106A700012F001058DB040F0788194F82500FF23D5
:106A800000F0030084F826301BF086F994F86A00C1
:106A9000420727D494F8292094F8353004EB820279
:106AA00004EB8303D66AD3F8388086B1B848314600
:106AB00015F038F833785B0605D5062110F01AFA80
:106AC000002800F05481B248414615F02BF8337885
:106AD00013F00E0F40F09E80236A93B10C200DB08E
:106AE000BDE8F08F2A4604F16B01C0F3C0001BF033
:106AF000C3FAFF2884F82600CCD028461BF066F99C
:106B0000C8E712F0B7FA8146002800F0548112F06D
:106B1000BDFA8246002800F04B8115F0F1FA0546D7
:106B2000002800F04A81D0F888004FF6FF732B85CB
:106B300005F11C0B002800F0208105F17C0205F115
:106B4000780110F0E3F9B5F8763023F4EF6323F021
:106B5000070343F4887343F00103A5F8763095F8F2
:106B6000393003F03F0363F07F0385F8393095F83F
:106B70008E3023F0070385F88E3095F83C3023F0F3
:106B80000703002785F83C304FF4C023C5F888314F
:106B90002846C5E91277C5F88870A5F88C706F860D
:106BA000C5F82E7085F83B702F65A5F88E71A5F895
:106BB000847117F0F3FB85F85071C5F8549115F006
:106BC0000BFD95F8943160F3020385F8943115F0CC
:106BD00009FD95F8943160F3C50385F8943195F873
:106BE000803167F3410385F880310121284616F092
:106BF00015F905F1D40017F08BF9C4E9189AC4F817
:106C000020B0C5E905772F70ED611CF07BFA0028F4
:106C100040F0AF8094F824300121C3F342030DF11A
:106C20002B008DF82B3010F00FFB0246002862D0AD
:106C300098F80110304614F037FD31235549A36010
:106C4000554BB4F86870A0FB01010025C01841F154
:106C500007014DA3D3E90023C4E9055525706560FC
:106C6000E560FFF74DFA206111F000FD00F1090821
:106C70003FB9357805F00F05A5F10105B5FA85F5A1
:106C80006D0994F82400236965F3000010F00105F4
:106C900084F8240036D0414A099200201060022571
:106CA0003F4A404F04930BAE019305920321CDE977
:106CB0000200069443460090089607972A460B95D3
:106CC00011F0D6FB314612F09BFAA0B93649059176
:106CD0004AF2D8330093CDE90300CDE901000797CC
:106CE000089606944346012203210B9511F0A4FB5C
:106CF0002EE014F029BC236A002B3FF4EFAE14F011
:106D0000E1FBEBE6254A2948049303F24713069476
:106D1000029591211360A7FB000301FB0731214B72
:106D200007931F4B05934FF6FF73099202270393B6
:106D30000BAE15A3D3E900230B970896FFF7E0F9F4
:106D40004346CDE900503A462846032111F090FB16
:106D5000314612F055FA0028CDD194F86A3001205E
:106D6000034384F86A301AF0F9FF0020B7E61220D6
:106D7000B5E614F0A7FB0320B1E605F18000C5F8E5
:106D80008800DAE6AFF300808D49FD1A07000000A5
:106D9000C455002000CA9A3B8C49FD1AB855002002
:106DA00025B70300C587030041B20300002AE7842A
:106DB000484612F065F9072091E6504612F06CF94A
:106DC000484612F05DF9F6E770B590F824308AB0C5
:106DD000C3F342030D46044601210DF1230016467C
:106DE0008DF8233010F030FA71780246284614F0FE
:106DF0005BFC1F491F4AA0FB0131981841F10701B4
:106E000019A3D3E90023FFF77BF9236998420546CC
:106E100021D21B1A00220192174A0293174BA21A81
:106E2000A3FB02320221920900230A4409AE099110
:106E300013490591CDE903330321D2B2069600939D
:106E4000184611F075FB314612F0DAF938B92561B0
:106E500000200AB070BDFBD9C21A0023DBE70C206A
:106E60000AB070BDAFF300808D49FD1A0700000025
:106E700000CA9A3B8C49FD1AC455002009CB3D8DB0
:106E8000C5870300000000002DE9F04F05468BB0D8
:106E90008B46012002219A4614461EF01DF800225E
:106EA00002218146012010F081F839494FF4D07257
:106EB000284610F00BF8C61CF6B2364B0095324649
:106EC0000121002011F04CFB10F0FD0F0CD0324AD4
:106ED0003249334840F62F0325F029FA404080F329
:106EE00011884FF0030002DF2E4BA4FB034820461D
:106EF00025A3D3E900234146FFF702F9089506953B
:106F00002B690493284B20F07F47A7FB0331E01A3D
:106F1000264B07934FF00702254B059302FB071101
:106F20004FF6FE7368EB010103934FF47A7200236E
:106F3000FFF7E6F8CDF800B0CDE9017053463246D0
:106F40000121002011F078FA10F0FD0F0CD0124A48
:106F50001249134840F6440325F0E9F9404080F314
:106F600011884FF0030002DFB9F1000F02D10BB01E
:106F7000BDE8F08F0122022110460BB0BDE8F04FB2
:106F800010F014B8AFF300808D49FD1A070000001F
:106F9000E83D0020A9C00300583905001C3A05004F
:106FA0002433050000CA9A3B8D49FD1A51C00300E5
:106FB000C5120400000000002DE9F043C469228DD1
:106FC0004FF6FF739A428DB000F088800546204648
:106FD00017F040FC95F82830012B00F00F81022BB0
:106FE00000F00281002B00F0E18094F85071002F36
:106FF00040F0FD80E68DB4F83080002E71D1AA8C6F
:1070000008F101060023CDE90A33B6B2002A70D098
:1070100094F93930002BC0F248810023A4F88A315A
:1070200095F82630D90740F1EF800023A4F88E317F
:107030000DF127023146204617F0ECF9743000F0CC
:107040004681B4F888312BB1B34240F20D819B1BCD
:10705000A4F88831B4F884312BB1B34240F2FB80FC
:107060009B1BA4F88431258E17B9A84500F0EA804F
:107070000135ADB294F8D13013F001065AD1DDE9F3
:107080000A130A46002B40F0ED80002900F0DC8056
:107090001E461846228DE4690694CDE90357033253
:1070A000A74D0290CDE90016D2B20121002005952E
:1070B00011F03EFA10F0FD0F10D012F0CBF8844220
:1070C0000CD0A04AA049A14840F2155325F02FF951
:1070D000404080F311884FF0030002DF0DB0BDE89F
:1070E000F083AA8C46440023CDE90A33B6B2002AC5
:1070F0008ED195F82630DA0797D4B4F88A31002B70
:1071000000F08280B34240F2FA809B1BA4F88A31DF
:10711000B4F88E31002B8BD09E4280F0DE809B1B1A
:107120009BB20022062BA4F88E31228600F2AC809E
:1071300001277DE794F939206FF30003002A84F8D2
:10714000D13077DB94F87600C0F3C00100F007007F
:107150001BF03EFEB4F86E20B4F86C30134403F21A
:10716000D51303447A4A7B480721E3FB00211046EC
:1071700071A3D3E90023FEF7C3FFDDE90A1320F072
:107180007F4220692261904235BF161A801A002082
:1071900000260A46002B7FF47DAF56EA010C7FF4EF
:1071A00079AF002850D019461E4673E794F88E3008
:1071B00003F01803182B7FF418AFA18DB4F88621C3
:1071C0008B1D9A42C4BF931F5B1AB4F88211CCBFC7
:1071D0009BB21346994200F08C80A4F88231A4F847
:1071E0008431A4F8882100E73D2784F8507139469E
:1071F00020460DB0BDE8F04315F0D0BA0023A4F846
:107200008831A4F88431F0E6B4F88E31002B83D1B4
:10721000628DB4F88C3140F2E24101FB02F242F29D
:10722000107101FB0323013BB3FBF2F39BB2A4F803
:107230008E316FE794F87700012100F007001BF012
:10724000C9FD87E73D4615E7002D4BD000261146C6
:10725000304633461EE70023A4F88431204617F059
:1072600079F900E7304615E711F05CFF0146002888
:107270003BD00023A4F88831238DC3801B230371E6
:10728000006811F019FFE5E694F939309342BFF632
:10729000CFAEB8F1000F7FF44BAFD4F878315A0875
:1072A000DB0743D4C4F87821C2E628460AAA0BA912
:1072B00004F1D409FFF760FB484616F06BFE18B3E3
:1072C000484616F067FE18B300232386A5E69DF80E
:1072D0002710204615F062FA00E70821204615F035
:1072E0005DFAFBE6002FB1D1F8E60123A4F888315E
:1072F000B0E6B4F8881100297FF477AE6FE73E213D
:10730000204615F04BFAE9E6FF2015F007FAD7E71B
:107310000246D4E91E010FF011FE0028D4D194F8E2
:107320003C30580744BFA38D238676E642F00042E6
:10733000C4F87821FCE600BF8D49FD1A0700000063
:1073400011C0030058390500803A050024330500B8
:107350008C49FD1A00CA9A3B2DE9F04F87B0CDE960
:107360000423BDF8442003780292BDF84820BDF8FC
:107370004080BDF84C50468EB0F82E90B0F814B155
:10738000019104460392002B00F08E80013EB6B2BC
:10739000A368D4F80C71721B92B2002B009209DA28
:1073A000E168626823F0004391422CBF7F18BF1848
:1073B000A360FF1A009A638D13FB02F39BB2B3FB29
:1073C000F8F218FB02F080B283421FFA82FA5AD216
:1073D000C01A40F2E2425E4902FB00F0A0FB01014C
:1073E00059A3D3E90023FEF78BFE20F07F4007442A
:1073F000D94494F839304D44AD1B554440F2E2462F
:10740000DB09E58506FB08F552D1524A524953483B
:1074100040F6BA0324F08BFF404080F311884FF010
:10742000030002DF0026A946029BA385039BA4F864
:107430008C3129462046A4F82A8017F027F8484BBB
:10744000A18D2B44881DB3FBF5F39AB29042A4F8AA
:10745000862102D2521A063A92B2019BA4F88221E6
:1074600013B10023A4F88E313B464A4631462046EC
:10747000FFF70AFD94F8803143F0010384F880316E
:1074800007B0BDE8F08F08FB1231314840F2E2430B
:1074900089B203FB01F1A1FB00012BA3D3E9002377
:1074A000FEF72EFE3F1AA3E74E445E44B6B26FE7E6
:1074B000226C0099A36CDFF898B002FB1133A3642F
:1074C0001BF070FE814694F87401C0F342001BF07B
:1074D0006BFE049B814406FB03F305FB09F923655E
:1074E00009F574291F4B09F23F29A3FB09394FEA1B
:1074F000994303FB0AF02364A5EB0309A36C6A0814
:107500000344963A934228BF1346C4E9112300234B
:10751000C4F87C31A0FB0B010BA3D3E90023FEF7D9
:10752000EFFD114B059A3F1AA3FB0230800A06FBC0
:1075300000F005A3D3E90023A0FB0B01FEF7E0FD5B
:1075400020F07F4670E700BF8D49FD1A070000005C
:1075500000CA9A3B58390500A433050024330500BE
:107560007FC3C90183DE1B435917B7D10000000058
:107570002DE9F04F0B6891F81180D3F80090037F4C
:10758000176895B00446C3F38013D0F81E008DF839
:107590003F30B8F1FF0F638C12900E461546ADF8E0
:1075A0004C300DF1480A49D19AE803001090ADF82B
:1075B00044102346E28D53F82EBB9B78AB722A8190
:1075C000D4F82A306B60D4F83A30AB6105F118007A
:1075D00094F83E30037105210FF036FE6B7F00F00A
:1075E0003F0060F305036B7794F83F30C3F3040268
:1075F000AA77A28EEA81012803F01F0392B205D96F
:107600001B3303F01F030B2B00D81ABB0022C9F851
:10761000142095F8203062F3000385F82030E568E7
:10762000012658462146267111F03CFD28682E712E
:10763000294611F041FD15B0BDE8F08F10AA0DF1FB
:107640003F0140461AF036F99DF83F3002338DF87D
:107650003F30AEE7336800215960E38EEA892B8220
:1076600040F2E24303FB02F20B92628E0D92384627
:1076700016F020FF94F83F2097F87411520962F336
:10768000430187F874111BF08DFD0C9097F874017D
:10769000C0F342001BF088FD0C9A0B99104401FBCB
:1076A00000F0B94A00F5742000F23F20A2FB002050
:1076B0004A08800C963A6862AA6294F8312040F237
:1076C000E24302FB03F3AB63238FA7F88C31384608
:1076D00016F0DCFE0B99AD4BAD4AC7F890210B4478
:1076E000B3FBF1F39AB2A7F88621298A881D82425A
:1076F00004DDC1F57F41FA310A4492B2A7F8822134
:107700006B68C7F87831234613F81C2FC2F3401278
:107710000C92DA0700F113814FF48073A38399F878
:1077200026001AF0BDFD04F12B03002800F0EB80C9
:10773000626AC4F82B20228D9A80B8F1FF0F00F006
:10774000E680BAF804301298A4F82930C4F825006D
:107750009DF83F30A3771098BDF84430C4F81F005F
:10776000A4F82330EB8963862B8AA386B7F88C3183
:10777000E38697F87431C3F3420384F8383038460F
:1077800014F0CAFCA881E08021465846746811F0C4
:1077900089FCAB89E3801C2323710C9BD4F8008007
:1077A000002B40F0BA800C9B23772146404611F015
:1077B00083FC95F85B00B5F85080B5F85240012184
:1077C00000F007001BF006FB444404F2D514DFF878
:1077D000CC81044482466F480721E4FB0801312331
:1077E0000024BB607C6066A3D3E90023FC60FEF745
:1077F00087FC20F07F4038610B9B6D6A0D995D1B03
:10780000F36840F2E24202FB013303F2B241A1EB22
:107810000A0A2246022101200FF0C8FB484614F054
:107820003DF90246AAFB0801924655A3D3E900237D
:10783000FEF766FCCDF80490B3685749009120F03C
:107840007F480AF102023A3BD2B22046434401216A
:1078500010F0C8FE01287FD099F82430DB0766D4E9
:10786000384614F059FC4D4BA5FB03A9044644A32C
:10787000D3E9002350464946FEF742FC484BB66820
:10788000484A079220F07F45A5FB0331BAEB03007D
:10789000454B059340F2D113069708933B694FF08F
:1078A000000BCDE903B34FF0070303FB051169EBB0
:1078B00001014FF47A720023FEF722FC03343A3EB2
:1078C000E4B2CDE90150CDF80080334622460121D3
:1078D000584610F0B1FD10F0FD0F0CD0334A34497A
:1078E00034484FF4E97324F022FD404080F31188BE
:1078F0004FF0030002DF0122022110460FF056FB79
:1079000015B0BDE8F08FC4F82B00988015E7002271
:10791000C4F82520A4F829201AE76B7F43F0400320
:107920006B77281D19F0D0FD0123E8833CE7002385
:10793000012200931846114610F012FE90E71B4AF0
:107940001D491C48F82324F0F2FC404080F31188C4
:107950004FF0030002DFDFE611F07CFC81453FF4CD
:107960007BAF124A1549134840F2792324F0DFFC1B
:10797000404080F311884FF0030002DF6CE700BF46
:107980008D49FD1A0700000083DE1B437FC3C90138
:10799000404B4C008C49FD1A8912040000CA9A3BE6
:1079A0008D49FD1A59120400C51204001C3F050040
:1079B0001C3A050024330500CC360500783F05004D
:1079C00010B5334C3349002304F1FF3C14F8332045
:1079D000072A02EB820E05D811F83E206FF34512FC
:1079E00001F83E201CF833206FF300020CF833201E
:1079F0000133082BEAD1284A284C002313700A7857
:107A000063F300020A7091F8282063F3000281F802
:107A1000282091F8502063F3000281F8502091F85B
:107A2000782063F3000281F8782091F8A02063F3B6
:107A3000000281F8A02091F8C82063F3000281F8C9
:107A4000C82091F8F02063F3000281F8F02091F84B
:107A5000182163F3000281F81821114A9FED0A7B77
:107A60001370104B83ED007B0F4B236028B1BDE8F2
:107A700010400E490E4829F052BEBDE810400C4897
:107A800029F05BBEAFF30080FFFFFFFFFFFFFFFFAA
:107A9000696100202860002018740020385F0020F1
:107AA00017740020B83F0020A0BB0D00B91F0400D0
:107AB000883F0020000000002DE9F04F8FB00DF14D
:107AC00037010446DFF8E0A0DFF8E0800DF1360072
:107AD00011F070FB9DF836309DF837B00B9310F025
:107AE000C5FDDAF80060A6FB085629A3D3E90023F8
:107AF0000027814631462846FEF702FBCDE907778D
:107B0000069420F07F44DAF80400234B0593A0FB91
:107B100008011FA3D3E90023FEF7F2FA1F4B20F060
:107B20007F40A4FB0331072202FB0411CDE903705F
:107B3000E81A66EB01014FF47A720023FEF7E0FACF
:107B40000097CDE901404B460B985A46032110F0AF
:107B500073FC10F0FD0404D06FF08B000FB0BDE893
:107B6000F08F0F480F4A002322F024FC20B9DAF8E6
:107B70000C000FB0BDE8F08F9DF837209DF836005F
:107B800000942346032110F0EBFC6FF07300E5E74F
:107B90008D49FD1A070000004D2504008D49FD1A8E
:107BA000DC610020447B0B00F461002000CA9A3B9A
:107BB00038B50F4D044610F059FDA96810F058FD76
:107BC000696803460B48B3FBF4F4A1FB00011C44B5
:107BD00005A3D3E90023FEF793FA20F07F40844207
:107BE00094BF0020012038BD8D49FD1A0700000018
:107BF000F461002000CA9A3BF0B5C468636883B0A2
:107C00000546002B63D11CF0F3FC08201CF016FD88
:107C1000002108461CF004FD0022252108201CF04C
:107C200043FD454B019301A81CF026FD434940F25A
:107C30005B601CF0CBFD237AC3F3420262F30613B0
:107C4000204623721BF0CEFC1AF0FEFB58BB637A71
:107C50009B071FD127682E6838461BF057F806444B
:107C60006A6806F1090101201CF0F8FE1CF0B6FF5D
:107C7000204613F01FFF811C3246C9B238461BF064
:107C800053F8054670BB20461AF0E8FF88B900207B
:107C900003B0F0BD01201AF055F84178821C00783D
:107CA0001CF07CFED6E7607A10F0030018BF0120BC
:107CB000F1E7234A2349244840F22C4324F037FBC0
:107CC000404080F311884FF0030002DFDFE793F8B4
:107CD00020309A0797D01D4821461CF047FC1CF025
:107CE0002FFDD4E7164A1A49174840F2144324F0EE
:107CF0001EFB184B0721A5FB030301FB05310CA359
:107D0000D3E90023FEF7FCF913490246134824F097
:107D10000EFB404080F311884FF0030002DF104853
:107D200021461CF023FC1CF00BFD6FF08B00AFE72D
:107D300000CA9A3B00000000D6BE898E55555500FA
:107D4000704305009034050024330500B12E040073
:107D5000A43305008D49FD1A20440500F4430500B5
:107D6000B5310400000000002DE9F041C468A2898B
:107D70004FF6FF739A4282B000F0C78005461BF0B1
:107D800059FF2B89628AE08A1A4492B21044637FB9
:107D9000A28280B2411CE1825E064FF00001618246
:107DA00004F1180100F18C8003F03F000B46A17F25
:107DB000009004F11F0019F03FFB0646D4E90B23A5
:107DC0001344D4E90D0200210244E1626163A16A17
:107DD000A26394F872208B4228BF0B4612F0040273
:107DE000236377D01CF004FC08201CF027FC201D26
:107DF0001CF042FC2389A17A40F25B6043EA014116
:107E00001CF0E4FC30461AF0A1FF214658481CF053
:107E1000ADFB96201CF016FE94F85A2094F85B00F7
:107E2000C2F3C003002102F0070200F007001CF0BB
:107E300033FD20461BF060FF27682E6838461AF095
:107E400065FF06446A6806F1090100201CF006FE81
:107E500080461CF097FE00201CF0AEFE236B94F8C9
:107E60005B0003F13002A36B00F00700012103EB7C
:107E700042051CF057FC4544054494F85B0000F0B3
:107E80000700022824D004280CBF4FF4BC73282319
:107E900001211D441CF048FC28441CF065FEA1890A
:107EA00003313246C9B238461AF03EFF054698BB48
:107EB00020461AF0D3FED0B9002002B0BDE8F08110
:107EC0000A4603F03F03E18B19F002FB064675E713
:107ED0001823DDE7D4E917010FF030F8002881D12D
:107EE00094F8723043F0040384F872307AE7214A40
:107EF0002149224840F2551324F019FA404080F3FA
:107F000011884FF0030002DFD6E71D4821461CF020
:107F10002DFB1CF015FCCFE7164A1A49174840F212
:107F20004B1324F004FA184B0721A5FB030301FBB4
:107F300005310DA3D3E90023FEF7E2F81349024609
:107F4000134824F0F4F9404080F311884FF0030007
:107F500002DF104821461CF009FB1CF0F1FB6FF01A
:107F60008B00AAE7AFF3008000CA9A3B0000000034
:107F7000513F040098440500903405002433050067
:107F8000B12E0400A43305008D49FD1AEC44050010
:107F9000F44305008D2E04002DE9F0472DED028BF2
:107FA0009FED498B4A4E84B004464FF02003EFF317
:107FB000118783F31288BFF36F8FD4F8C8508DB93F
:107FC000022104F1E00029F0F3FA002843D1002354
:107FD0008DED008B029304F1D00239463D4822F02A
:107FE000C7FEE2E7D4F8CC202B68C4F8C83095422D
:107FF00008BFC4F8CC30D4F8E03043F00203C4F832
:10800000E030EB6823F0040343F00103EB606B689E
:1080100087F31188BFF36F8F284698474FF02003EE
:10802000EFF3118983F31288BFF36F8FEB68990721
:1080300023F0010219D4EA60D4F8E03023F00203FF
:10804000C4F8E03089F31188BFF36F8FDB05ACD43F
:1080500022F06EFDA9E704F1D8050022012128468F
:1080600029F0ACFC0028F8D1B1E7306823F0030315
:10807000EB600028E0D00027D0F80080BA46002846
:10808000DAD04268954201460BD1016897B972680F
:108090003160824200D1716040F808AB22F064F98F
:1080A0003946B8F1000F0BD0D8F8002040460F46F3
:1080B0009046E4E739607268824208BF7760EBE778
:1080C0004246F3E7AFF30080FFFFFFFFFFFFFFFF34
:1080D000147200202E740020014822F047BA00BF1D
:1080E0003803002007B529F0A6FC4FF47A72A0FBF4
:1080F000020302FB0131C00B074A40EA4140106015
:1081000000234FF400420548CDE9002323F00EF888
:10811000002003B05DF804FB60430020C00F002086
:10812000014B187800F0D0BB8A720020044B1A78FB
:10813000824202D01870FFF7F3BF0020704700BFE3
:108140008A72002008B529F076FC4FF47A72A0FB01
:10815000020302FB0131084AC30B126843EA4143A0
:108160009B1A47F23052934204DDBDE808400120DB
:10817000FFF7DCBF08BD00BF6043002008B529F051
:108180005AFC4FF47A72A0FB020302FB0131C00BD0
:10819000044A40EA41401060BDE808400020FFF773
:1081A000C5BF00BF60430020014B1878704700BF77
:1081B0008A7200202DE9F04F1C4D1D4CDFF878A08D
:1081C000DFF878B083B0641BA40800AF0026A9468E
:1081D000B44204DC00200C37BD46BDE8F08F013608
:1081E000B046444501D10435F2E72B6859F8282000
:1081F0001B6811687B601846FEF7ECF87B6890B945
:10820000C7F804D088B06A46C2E905A34FF40073EA
:10821000938342F810BF4FF4E2510346054802F041
:1082200047FFD7F804D008F10108DAE7E89705001E
:10823000F49705005C2705001848050003000001BD
:10824000F8B5044610B900252846F8BD0378002B80
:10825000F9D00F4E0F4FBE420FD30D4EBE42F2D299
:10826000306828F0F9FF30B1356821462868FEF7FC
:10827000B1F80028E8D00436F0E7306828F0ECFFC9
:1082800018B135682B68A342DED00436E3E700BF9F
:10829000E8970500F49705001FB50A4C2468A46808
:1082A00084420DD183F00103CDE901120393064806
:1082B0000022002301A921F0BDFE044822F056F956
:1082C00004B010BD00440020DC100020F04300206A
:1082D0002DE9F04FDFF80081DFF80091384E8DB0C6
:1082E00002AF00220023391D404621F0F9FE8346EB
:1082F00018B12C37BD46BDE8F08FD9F80030FC68C6
:108300005868D7E9011223F0D8FA2E4B002C18BF79
:108310003346051ED7E9010115DA6C468AB002AA78
:10832000294DC2E9071340F202439384274BC2E967
:10833000055042F8103F26485B464FF4325102F098
:10834000B7FEA546CDE7EA468CB002AADFF890C09A
:10835000C2F814C09362DFF88CC040F204639385C6
:108360001C4BC2E906C0C2E9081542F8103F184884
:108370005B464FF47451B4FA84F402F099FEFF2383
:108380006409D5463B747D613C7629F054FB4FF47B
:108390007A72A0FB020302FB0131C00B40EA4140AC
:1083A000C90BC7E9080107F1280313E903008DE8A9
:1083B000030007F110030FCB00F0A0FA91E700BF14
:1083C00048480500434805004E48050005000001E7
:1083D0005C27050007000001DC100020004400209D
:1083E00084480500384905001FB50023CDE9023354
:1083F000044B8DF80C0001A8019323F085FA05B019
:108400005DF804FBB8290500044B1A68044B9A4236
:1084100014BF6FF012000020704700BF004400201E
:10842000A4290500F8B5054600AF002838D01E4E37
:108430003368834232D02BB1986818B183685B6887
:1084400003B1984719491A4B8D4214BFED21002101
:108450002322002023F04BFA041E12DA6D4688B066
:108460006A46144BC2E90534032342F8103F124810
:1084700000234FF4C25102F01BFEAD462046BD461C
:10848000F8BDA868356048B183680C491B689847F7
:108490003368986883689B6803B198470024EDE7C8
:1084A0006FF01204EAE700BF00440020A429050091
:1084B00064430020B44805005C270500998202004F
:1084C00038B5054648B90648FFF7ACFF041E02DB85
:1084D0002846FFF789FF204638BD6FF01504FAE7FC
:1084E000A4290500B0B5104D034600AF084601228F
:1084F00029469847041E12DC6D4688B06A460B4B2D
:10850000C2E90534032342F8103F094800234FF421
:10851000C25102F0CDFDAD462046BD46B0BD287823
:10852000FFF7CEFF0446F7E7C80E0020E948050034
:108530005C27050073B50E4614460A4901AA1D467C
:1085400024F0F8FD38B1019B3BB9012E07D1294633
:108550002046FFF7C7FF02B070BD0020FBE76FF0B9
:108560001500F8E72F4905000148FFF75BBF00BF82
:10857000A429050008B50749074829F08CF8074ADF
:10858000002342F8043B0133232BFAD1BDE8084015
:10859000FFF7EABFD1820200F043002064430020CD
:1085A0002DE9F843274E284BA3EB060800AF814680
:1085B0000D4606EBC106C8F3C708A84524DD32689E
:1085C000D9F800309A420BD189F8045073684846B4
:1085D0001B6898470128044605D0022819D0E8B93D
:1085E00001350836E9E76C4688B06A46174B536197
:1085F000174B9361032342F8103F164800234FF4B2
:10860000C85102F055FDA54600242046BD46BDE8F0
:10861000F8836C4688B06A460F4BE8E76D4688B031
:108620006A460E4B53610A4BC2E90630042342F8F6
:10863000103F084800234FF4045102F039FDAD46C5
:10864000E3E700BF40840500688405009F490500FA
:10865000014A05005C270500BE490500DE4905000A
:1086600000B58BB0064B074A2821684622F034FE3D
:1086700005490122684604F0B5FB0BB05DF804FB28
:108680001F4A0500294A05008B72002008B5074BD8
:108690005A784AB901221A7005480022002321F0B5
:1086A000CDFF044800F080F8002008BD8B72002048
:1086B00080130020002405002DE9F047D0F8048045
:1086C00000AF054600244FF00109D8F80430A3425A
:1086D0000ED82B492B4829F022F8AB681B680BB148
:1086E00028469847B8F8081000293CD1002035E00A
:1086F000D8F8002002EBC40352F834001979DB8863
:10870000D0F810C0D0F808A0DCF80060DA0754BF39
:1087100043F4B01383F4D01323F4801209FA01FE5A
:10872000DB074CBF46EA0E0626EA0E06CCF80060D0
:10873000DAF800309847A0B16D4688B06A46124B0F
:10874000C2E90534032342F8103F104800234FF4D8
:10875000C25102F0ADFC6FF00400AD46BD46BDE86D
:10876000F0870134B1E740F2E7304FF47A7200232A
:1087700000EBC1300021FDF7C3FC22F05BFAB5E746
:1087800061860200801300203C4A05005C2705003A
:1087900008B54FF4F0120023024821F083FF00EAED
:1087A000E07008BD80130020F8B50669456800AF89
:1087B00000246B689C4204D301233370FFF7E8FF69
:1087C0001BE02B6803EBC40153F834000979012244
:1087D00023F09DF898B16D4688B06A46094BC2E90E
:1087E0000534032342F8103F074800234FF4C451D7
:1087F00002F05EFC6FF00400AD46BD46F8BD0134EA
:10880000D7E700BF694A05005C270500F8B506698F
:10881000456800AF00246B689C4204D3002333708A
:10882000FFF7B6FF1BE02B6803EBC40153F83400DD
:108830000979002223F06BF898B16D4688B06A463A
:10884000094BC2E90534032342F8103F07480023CF
:108850004FF4C45102F02CFC6FF00400AD46BD464D
:10886000F8BD0134D7E700BF904A05005C2705003A
:10887000F7B50C461646114901AA1F4624F05AFCCA
:10888000B0B1019BA3B9012C15D10D4D224629464B
:108890003846B047002806DB2B780A486C7023B1B5
:1088A000FFF782FF002003B0F0BDFFF7AFFFF9E74D
:1088B0006FF00100F7E76FF01500F4E71F4A0500BD
:1088C0008B720020002405001FB50023CDE9023380
:1088D000044B8DF80C0001A8019323F015F805B0A6
:1088E0005DF804FBDC2905000268034B9A420CBFCB
:1088F00008300020704700BFDC29050084B030B587
:1089000089B00CAC84E80F00002301930CAD084B38
:1089100000930FCD02AC0FC495E8030084E8030078
:10892000684622F0F1FF09B0BDE8304004B070475E
:10893000E02905000268034B9A420CBF0830002072
:10894000704700BFE02905001FB50023CDE90233C1
:10895000044B8DF80C0001A8019322F0D5FF05B05F
:108960005DF804FBEC29050080B500AF88B06A46CD
:10897000074BC2E90530032342F8103F05480023A6
:108980004FF4C25102F094FB6FF00400BD4680BD6D
:108990004E4B05005C27050082B010B502A981E8A6
:1089A0000C0004460C4821F07FF828B96068BDE847
:1089B000104002B0FFF7D8BF6368022B06D122F047
:1089C000D3FF0028CCBF002001206060BDE810402C
:1089D000002002B0704700BF1F4A050082B0B0B54A
:1089E00000AF07F1100181E80C0005461F4821F097
:1089F0005BF86B680446B0B96D4688B06A461C499E
:108A0000C2E90513032342F8103F4FF4C251034655
:108A1000184802F04DFB6FF00400AD46BD46BDE8BE
:108A2000B04002B07047012B0AD0022B03D053B9DB
:108A300022F093FFF2E722F097FF00282046F7DCB0
:108A400022F084FFEAE76C4688B06A460A49C2E928
:108A50000513032342F8103F064800234FF4C25188
:108A600002F026FB6FF08500A546D7E71F4A0500F8
:108A70004E4B05005C270500764B05001FB5002313
:108A8000CDE90233044B8DF80C0001A8019322F0CC
:108A90003BFF05B05DF804FB2C2A05000268034B80
:108AA0009A420CBF08300020704700BF2C2A0500F6
:108AB00008B500F0E9FFBDE80840014928F018BEFC
:108AC0004803002007B5084828F0C6FB48B14FF41A
:108AD000F0120023CDE9002304480022002322F0F5
:108AE00025FB03B05DF804FB3C240500F80F0020D3
:108AF00008B5FFF7F9FE10B96FF0850008BDFFF764
:108B000053FB38B10138C0B20128F5D8034828F02A
:108B1000E5FF01E0FFF7D6FF0020EFE7F80F0020A8
:108B200080B50C4B00AF88B01B686A460A49C2E9A1
:108B300005134FF400739383084B42F8103F084825
:108B400000234FF4E25102F0B3FA6FF01200BD4679
:108B500080BD00BF3C240500DC4B05000300000184
:108B60005C27050008B5064828F076FB18B9BDE873
:108B70000840FFF7D5BFFFF7A5FF002008BD00BFE5
:108B80003C240500F0B583B000AF404DAE682D2108
:108B9000F36828469847044630B36D4688B06A4665
:108BA0003B4B53613B4BC2E90634042342F8103F70
:108BB00000234FF40451384802F07AFAAD466D466E
:108BC00088B06A46354B5361354BC2E906340423FD
:108BD00042F8103F304800234FF4045102F068FA85
:108BE000AD460C37BD46F0BD2D2133693A462846C7
:108BF0009847044620B16D4688B06A46294BD0E7B5
:108C0000294D38682B78834212D0C0B22870FFF704
:108C100035FF044660B16D4688B06A46234BC2E911
:108C20000530032342F8103F00234FF4C251C2E73E
:108C300004F0AAF82B789842D3D06E4688B06A46E2
:108C40001B4951611349C2E90613042342F8103F3E
:108C5000114800234FF4045102F02AFAB54628784F
:108C600004F098F804460028BBD088B06A46114B3F
:108C7000C2E90530032342F8103F074800234FF4B0
:108C8000C45102F015FAB54699E700BF3C2405002F
:108C9000FD4B0500024D05005C270500DA4C050080
:108CA000154D0500244C05008D720020524C050026
:108CB000824C0500AC4C05001FB50023CDE9023302
:108CC000044B8DF80C0001A8019322F01DFE05B0A5
:108CD0005DF804FB342A050008B5BDF808101944F6
:108CE000012908DC3BB1054B127805481A7021F0C8
:108CF0003DFC012008BD6FF00600FBE78E720020EE
:108D0000980300201FB510240294044C0194BDF870
:108D10001840009427F000F904B010BDA3720020A1
:108D200007B5064B00930649064805234FF43E72EB
:108D300021F022FC002003B05DF804FB382A050076
:108D400030740020B01300202DE9F04F91B006AF31
:108D50006E46B7F850B0CC680BEB03098AB0924668
:108D60001D461FFA89F906AA504BDFF8608153614E
:108D70000523C2E9068B15624D4842F8103F4FF4B7
:108D8000245122F02BFEB9F1140FB54600F28A806F
:108D900014202A46514600FB0B4029F022F8B9F175
:108DA0000B0F7AD9A14419F8011C002975D1202292
:108DB000781D29F024F801233B71D4F80330C7F85B
:108DC0001530D4F80730C7F819302378C7F81D30AC
:108DD000A37887F822300B3410222146781D22F028
:108DE00054FD0F2811D98AB006AA324B3048C2E987
:108DF00005347B1DD361304B1362304B42F8103F7A
:108E00004FF4215122F0EAFDB5466E468CB0D7F8FA
:108E10001500D7F8191097F822E006AA7B1DC2E9C1
:108E20000730DFF8ACC0224840F201339385244B71
:108E3000C2E905C8C2E9091E42F8103F4FF4745157
:108E400022F0CCFDB54600F08DFB07F1100E8146F7
:108E5000BEE80F00EC46ACE80F009EE803004CF8BB
:108E6000040B07F104088CF8001098E80E0048463F
:108E700000F04EFC88B18AB006AA124BD061C2E95C
:108E800005344FF4007313840F4B42F8103F084829
:108E90004FF4115122F0A2FDB54628462C37BD46AD
:108EA000BDE8F08F6FF00605F7E700BF4A4D0500FB
:108EB0005C2705005F4D050000020103040000026D
:108EC00007000001CB4D0500040000012E4F0500F6
:108ED000A54D050080B500AF88B06A46074B5361C9
:108EE000074B0848C2E90631042342F8103F4FF40B
:108EF000045122F073FDBD4680BD00BFEC4D05005E
:108F0000164F05005C270500B0B50C4C00AF6D4650
:108F100088B023786A460A4951610A490A48C2E979
:108F20000613042342F8103F4FF4045122F056FD7B
:108F3000AD462078FFF7C4FABD46B0BD8E72002062
:108F4000F94D0500454F05005C270500F0B5184DAB
:108F5000184E8BB000AF002200233946284621F07E
:108F6000BFF8044610B12C37BD46F0BD214618228B
:108F700007F1100028F043FF1023F9182046C7E935
:108F80000567BB830BF06AFF0028E4D06C4688B00D
:108F90006A46094B5361094BC2E90630042342F883
:108FA000103F07484FF4045122F018FDA546D2E7C0
:108FB0000C110020542A05002E4E0500F94E050024
:108FC0005C270500B0B586B000AF1C491C4840F6D0
:108FD000CD42002321F02EF8044650B310F10B0FC0
:108FE00017D1184B7B61022317483B6107F1100230
:108FF0004FF4845122F0F2FC00220023394610483D
:1090000021F06EF8FFF7DEFF044620461837BD4614
:10901000B0BD6D4688B06A460C4BC2E905300323EB
:1090200042F8103F08484FF4C45122F0D7FCAD4637
:10903000EBE70749074828F05BFBE6E7A37200204F
:109040000C110020454E05005C270500914E0500DF
:1090500058030020B0130020B0B5037800AF9BB1D7
:10906000032B20D06C4688B06A4612491248C2E9E8
:109070000513032342F8103F4FF4C45122F0AEFC15
:109080006FF08500A5460FE042780C4D02F0070115
:10909000D40801228A4081782B5DD2B231B11343CA
:1090A0002B55FFF78FFF0020BD46B0BD23EA02031A
:1090B000F6E700BFBD4E05005C270500A372002047
:1090C000014B1970704700BFB6720020014B186049
:1090D0000020704704440020084A094B12781B788E
:1090E000002062F30700074A12785B0062F30F204A
:1090F000DBB282B063F3174002B07047B372002056
:10910000B7720020B472002013B50C4B1C6894B1E8
:10911000FFF7E2FF8DF80400C0F30723C0F3074018
:109120008DF805308DF8060001990548234602B0F8
:10913000BDE81040184702B010BD00BF0444002035
:10914000F497050010B5084808F05CFF074809F0DF
:1091500025F9074B074800241C70074B01221A70A1
:1091600021F004FA204610BDE0030020D0030020C7
:10917000B5720020C0030020B37200200B4BB1FA7F
:1091800081F010B540090C461870FFF795FD3C2C96
:109190000AD1074B1B783BB1064B074801221A70D6
:1091A000BDE8104021F0E2B910BD00BFB772002049
:1091B000B4720020B57200200004002070B503785E
:1091C0008AB004460E4607AD032B20D8DFE803F033
:1091D00002191B1D11492846FDF706F9059563780C
:1091E0000493A3780393E37802932379019363793B
:1091F0000093A3790A4A1E21304622F06DF80AB086
:1092000070BD0849E7E70849E5E70849E3E7084A88
:109210000A21284622F060F8E0E700BF6B4F050006
:109220008D4F0500724F0500794F0500834F0500F3
:10923000377A0500B0B588B000AF0C4625F05EFF68
:109240003946FFF7BBFF6D468AB06A46114B536142
:10925000114B1462C2E9063740F2013393840F4B7D
:1092600042F8103F0E4800234FF4345101F020FF24
:109270000C4B0024AD4620461C70FFF71DFD0A4B29
:109280001B7823B1094B0A481C7021F06FF9203775
:10929000BD46B0BDB04F0500D0500500050000012F
:1092A0005C270500B7720020B4720020B572002060
:1092B0000004002038B507220C460649054628F070
:1092C00039FF28B12B682360AB88A380AB79A371E9
:1092D00038BD00BFF75F0500F0B5294E294B2A497C
:1092E0008BB002AF3068B2881C7878603D1DB379CE
:1092F0003A8100202A46AB710DF04EFB3146072221
:10930000284628F017FF214B064660B33CBB0320DC
:109310002246214601241C700023C7E90402C7E944
:109320000615BB81BB731A460093194607F10C0062
:1093300007F0C2FE00280FDA6C4688B002AA144B70
:10934000C2E90530032342F8103F124800234FF4CE
:10935000C25101F0ADFEA5462437BD46F0BD132035
:10936000A022F021D6E70C4D18700FCD07F10C04A8
:109370000FC42B6823600949009633460322D5E7C2
:10938000F75F0500B5720020B5920200B6720020AA
:10939000D94F05005C27050020280500042B050097
:1093A000B0B582B000AF0120194900243A1D7C609D
:1093B00008F0FAFC7868A0B1132125F017FE002808
:1093C0000FDA6D4688B06A46124BC2E905300323B6
:1093D00042F8103F104823464FF4C45101F068FE94
:1093E000AD4607F09BFE00280FDA6C4688B06A464F
:1093F0000A4BC2E90530032342F8103F0648002318
:109400004FF4C45101F054FEA5460837BD46B0BD27
:10941000E3B90400FA4F05005C2705002A50050057
:1094200008B5054B187020B1044821F09FF80020C2
:1094300008BDFFF7B5FFFAE7B47200200004002072
:10944000B0B5002000AF06F081FF044690B16D4634
:1094500088B06A46094BC2E90530032342F8103F41
:10946000074800234FF4C25101F022FEAD462046CA
:10947000BD46B0BD034803F045FDF8E74A5005007E
:109480005C270500A8030020F0B589B000AF0D46A9
:10949000144625F033FE3946FFF790FE6E46BCB900
:1094A0008AB06A46134B5361134B1562C2E9063703
:1094B00040F201339384114B42F8103F4FF4345182
:1094C00023460F4801F0F4FD2437B546BD46F0BDF4
:1094D0008AB06A460B4BC2E905374FF40073938498
:1094E000064BC2E9075442F8103F00234FF43151B4
:1094F000E7E700BF60500500EE50050005000001E1
:109500005C27050082500500F0B589B000AF0E461B
:1095100015461C4625F0F2FD3946FFF74FFE8CB08C
:1095200068460C4B43610C4B8462C0E90637024627
:1095300040F201338385094BC0E9086542F8103FCA
:10954000074800234FF4745101F0B2FD2437BD46A3
:10955000F0BD00BFA6500500DD500500070000016A
:109560005C27050000487047F49705007FB5074B5E
:1095700005930748022304AA4FF48451049322F070
:1095800034FA6FF0120007B05DF804FB0E510500CD
:109590005C270500F0B5284C284E83B000AFB442DC
:1095A000254602D36FF0120018E02B689B68043444
:1095B000BBB9234C2368AB421FD16C4688B06A46C6
:1095C000204B5361204B9361032342F8103F1F4807
:1095D0004FF4C85122F009FAA54600200C37BD46C9
:1095E000F0BD9847C0F3072338717B71C0F3074380
:1095F000C0B2BB710028D2D0DBE7ABB11B685B689F
:1096000093B10020984700280EDA6E4688B06A466B
:109610000F4BC2E90530032342F8103F0B484FF4CB
:10962000C45122F0E2F9B5462B6825605B68002B37
:10963000D3D001209847D1E7F4970500F8970500AB
:109640000844002042510500595205005C270500DE
:109650007551050070B5094C094D0A4EAC422346C0
:1096600003D3BDE87040FFF795BF1B68DB68043487
:10967000002BF3D030469847F0E700BFF497050081
:10968000F897050089960200F0B51C4B83B01B6863
:1096900000AF83427960C1F307442BD16D468CB093
:1096A000787939796A46164E5661164E9462C2E947
:1096B00006630723C2E9080142F8103F12484FF43D
:1096C000645122F092F9AD461CB100200C37BD4622
:1096D000F0BD88B06A460D4B0B48C2E9053603233E
:1096E00042F8103F4FF4C85122F07FF9AD46FFF722
:1096F00051FFEBE7FFF74EFFE7E700BF084400200C
:10970000AE5105007A5205005C270500FC510500AA
:1097100084B02DE9F0439BB004AF07F17C006C46A8
:1097200088B080E80E0004AA654B5361654D9561D1
:10973000032342F8103F64484FF4C85122F055F912
:1097400097F87C30012BA54640F0A380D7F88D1008
:10975000D7F8913097F89A60B96007F17D008CB026
:109760007860FB6004AADFF874C1C2E9093640F2F0
:1097700001339385554BC2E905C5C2E9070142F89B
:10978000103F51484FF4745122F02FF91822A5468A
:10979000002107F1100028F032FBD7F8959028F04F
:1097A0004AF94FF47A73A0FB030C03FB01CCC40B02
:1097B00097F89A3044EA4C444FEADC3CC7E90594F8
:1097C00007F14008C7F81CC0002B37D007F110067E
:1097D0000FCE07F128050FC596E8030085E80300C2
:1097E000C7E90B94C7F834C007F128060FCE4446EA
:1097F0000FC495E8030084E80300786822F05BF862
:10980000B0B96FF015006C468AB07B6804AA304985
:10981000D061C2E905134FF4007313842D4B42F855
:10982000103F29484FF4115122F0DFF8A54630E0EF
:1098300083689C680CBB6FF08500E4E707F11005B6
:109840000FCD07F128060FC695E8030086E8030050
:10985000C7E90B94C7F834C007F128040FCC45467C
:109860000FC596E8030085E80300786822F023F826
:109870000028C6D08368DC68DCE707F1580313E9E9
:109880000F008DE80F00381D98E80C00A047002855
:10989000B9D188B097F87C3004AA0F490A48C2E9C8
:1098A0000513032342F8103F4FF4C45122F09DF8F2
:1098B0006FF085005C37BD46BDE8F04304B07047EB
:1098C00020520500965205005C27050007000001A4
:1098D000CB4D05000400000125520500A54D0500F3
:1098E000044B1B681BB11B680BB11B680BB9FFF75E
:1098F0003DBE184708440020B0B584B06C4600AFA8
:1099000088B005466A461A4B53611A4B936103238C
:1099100042F8103F18484FF4C85122F066F8284624
:10992000A546FFF707F8044658B10D220021384636
:1099300028F065FA63687B70237ABB703846FFF7BE
:10994000CFFF2846FFF7AAF868B10023C7F8013017
:10995000C7F80530C7F8093003233B7003787B70E4
:109960003846FFF7BDFF00201037BD46B0BD00BF31
:10997000205205003F5205005C2705007FB5084BCB
:109980000593022304930748002304AA4FF482514D
:1099900001F08EFB6FF0150007B05DF804FB00BF0F
:1099A000C55205005C27050008B5044802F08EFB8F
:1099B00018B1BDE80840FFF7E1BF08BD219A0200D9
:1099C000B0B5134C00AF6D4688B023786A46114994
:1099D00051611149C2E90613042342F8103F0F48B0
:1099E00000234FF4045101F063FB23780B2BAD46A9
:1099F0004FF0010008D8984010F4CD6F06D110F454
:109A0000016F0CBF01200020BD46B0BD0220FBE766
:109A1000540F0020DA520500E85205005C270500CB
:109A20000A2810B514D00B4C2070FFF7C9FF02288C
:109A3000094A0BD121781378032908BF43F00103A9
:109A40001370BDE81040054820F090BD0023F7E7F3
:109A500010BD00BF540F0020B87200201004002079
:109A600007B5064B0093064906480A234FF4407297
:109A700020F082FD002003B05DF804FB202B0500E0
:109A80002877002098140020004870479814002080
:109A90007FB5094B059302230493002304AA4FF4D6
:109AA0008651064801F004FB03F042FB23F03BFB28
:109AB000002007B05DF804FB175305005C27050084
:109AC00010B5094C0A44914200D110BD11F8013B78
:109AD000584003090001E35CC0B2434018091B0170
:109AE000205CDBB25840EEE72C5305002DE9F04F27
:109AF00091B08407009302F004030293C2F3C203FF
:109B000003F10103DDF86890039205460E460593C4
:109B100040F0BA81041D30B1072909D86FF01B004D
:109B200011B0BDE8F08F01F00706341DC6F108063C
:109B3000009B4FF00008591E4FF0040A4FF0FF330E
:109B40000193CDF810804746C34653460DB10098A7
:109B500020600598002800F3E8809848009A824227
:109B600003D397488242C0F0E080039AA4EB050E2D
:109B700092074FEA9E0000F103810F2F00F2B1809F
:109B8000002D00F0058107F140020DEB020C019A57
:109B90000CF8200C0CF8102C049801300490E7E02D
:109BA0007A285DD84B280ED8472859D829282DD88F
:109BB000252852D054D820287AD02338D0F1000B51
:109BC0004BEB000B74E04C382E2849D8DFE800F04E
:109BD0007048484848484848484848484B484848DA
:109BE000484848484859484B4B595959704B6D485B
:109BF0007048184B184848827F4B48484B487F00B4
:109C000000204FF0000B4FF0040A38E02A38C0B2B1
:109C1000012202FA00F010EA0E0F49D110F0625C46
:109C20002FD110EA020B43D06046013C5444B4FBF0
:109C3000FAF40AFB04F4002D61D0A3EB050CA44454
:109C40006645FFF46BAF002868D1042B47D159F863
:109C5000043B2360043404232AE0019A013A019270
:109C60004FF0000B24E011F8010C6C2834D111F8EE
:109C7000023C00206C2B8346C5D14FF0080A5346A6
:109C8000D3E709F1070929F007090734F9E802AB1E
:109C900024F0070435B106982044B0423FF63EAFA9
:109CA000C4E900AB08344FF0000B4FF0080A5346EC
:109CB00011F8010F002878D0BBF1000F7FF470AFCE
:109CC0002528F5D1019B013301934FF0010B4FF093
:109CD000040AECE7584694E700208346A5E7082BE2
:109CE00002D06FF015001BE709F1070929F00709F9
:109CF000B9EC027B84ED007B08340823D8E768B90F
:109D0000042B02D109F10409A4E7082BE9D109F1D8
:109D1000070929F0070909F10809EDE70598013855
:109D2000059059F8040B009010E7039A900720D58E
:109D3000A4EB050E4FEA9E004FF0010CBEF5007F2C
:109D4000CFD20F2FCDD8F5B107F140020DEB020EA7
:109D5000C0B2019A0EF8200C0EF8102CBCF1000FC6
:109D60003FF41AAF60F07F000EF8200C08F10108F4
:109D70000137C5F10802043406924FF6DA7E97E700
:109D80004FF0000CDAE7BCF1000F01D00136EFE72D
:109D9000029A0236002AEBD10098CDE90631FCF791
:109DA0002BFBDDE906310644E2E7631BB3F5806F68
:109DB00097D23DB9A6F10804E018B1E6EC21050000
:109DC00068840500029A28609B082B709DF810306B
:109DD000C2B1EB7085F80280B8F1000F05D008A879
:109DE0000022C5F1010C97420ED1C5F101030DF11E
:109DF00020094FF0000A01930DF1300B574512D1A5
:109E0000601B8DE66B70E5E710F8013B190608D57D
:109E100004EB0C0E764503F07F03FFF47FAE04F8ED
:109E2000013B0132DFE7B8F1000F03D099F90020C0
:109E3000002A17DB029BD3B11AF80B2004F8012B80
:109E40000022019B981820448642FFF467AE99F8DF
:109E5000000004F8010B00990392204627F0C1FF8F
:109E6000039A14440AF1010A09F10109C6E799F8B5
:109E7000002055F822300093029B45F822300098CC
:109E8000FCF7BAFA421CDCE76FF00D0048E600BFB1
:109E90002DE9F04F95B000AF90F802B0BB61BB6FF9
:109EA0007A62C3F3C00304463B618A4641B94578F0
:109EB00000780BEB80002044554517D8A0EB040A2E
:109EC000E3787B61BBF1000F02D0BB6FD80716D4DB
:109ED0007B6953BB7B6A1BB1BA69514620469847E0
:109EE000554628465437BD46BDE8F08F461C3046DF
:109EF000FCF782FA013030440AF1010ADCE72378EA
:109F00003B629B00FB603B6A6268FA6104EB830979
:109F10007B6A002B40F0FE805546C84609EB0B0AD1
:109F20000026D04551D1D94413E0BB6F9907D1D554
:109F300023783B6299469B00FB606368FB617B6A08
:109F400004EB8909002B7AD15546BBF1000F4FD1A4
:109F50005E46BB6F13F0050F7B6909EB430ABB6FCD
:109F600003F002030CBF4FF0020B4FF0010B7B62BA
:109F7000D145B6D019F8021B19F8013C54F82380DA
:109F8000AA4B984502D3AA4B984538D33B69002B7E
:109F900042D0F86921F064FD00283DD0E8468AB03F
:109FA0006A46A44B5361FB69C2E906314FF4007362
:109FB0001384A14B42F8103FA04800234FF41251E4
:109FC00001F076F8023DC546D2E718F8013B54F897
:109FD0002300FCF711FAFB6F01303BB1D7F880305A
:109FE0009E423EBFFB6F23F816000136054498E7FA
:109FF000BB6F13F004061CBF7E6AD944A9E73B6916
:10A0000023B1F86921F02CFD0028C7D1BB6FDA0716
:10A0100005D4A5EB0B05ABE77B6A002BA8D0404627
:10A02000FCF7EAF9FB6F43B1D7F880309E423FBF9F
:10A03000FA6F431C22F816300136054498E7BBF14D
:10A04000000F6DD0BB6F13F004066CD0D84600260D
:10A0500007F140005A46494627F0C3FE7B695B0082
:10A060007B607B69D94409EB4303BB60BB6F03F0A2
:10A0700002033B60BB684B4557D1B96F6378B86F3B
:10A08000890706EB030254BF4FEA58010021C507B8
:10A09000D2B200F19A8010F0040F14BF40460020A5
:10A0A000FB616270A070E170BA69F9687B6A204652
:10A0B0009847051EFFF615AF3B6A2370FB69637076
:10A0C0007B69E3704146BA697B6A84F802B007F1A4
:10A0D00040009847B0F10008C0F2A480FB68BA695C
:10A0E000AAEB0B01C91A7B684846C91A7B6A9847D4
:10A0F0000028C0F29980A84408EB00054FF0000B3F
:10A1000007F1300AB34562D30021BA697B6A084679
:10A110009847E6E65E464FF0000807F1300099E701
:10A120005E46D8469AE7B04698E719F8021B3F4BBF
:10A1300019F8015C54F82500984202D33C4B984230
:10A140001DD33B6923B1F86921F08AFC002891D125
:10A150003B68FBB908F1280307F1280208F1010068
:10A1600003EB020C07F1500353FA80F008F10208E8
:10A170000CF8101C5FFA88F800F8105C7AE73B696D
:10A180002BB1F86921F06CFC00287FF473AFBB6F32
:10A19000DB0709D506F1280307F12802711C9E1878
:10A1A00006F8205CCEB265E7BB6F58077FF562AF5B
:10A1B00008F1280307F1280208F1010103EB020866
:10A1C00008F8105C5FFA81F854E7002068E71BF894
:10A1D0000A3087F82F3054F82390FB6FFBB133F827
:10A1E0001B80BA697B6A012107F12F00984700287C
:10A1F0001ADB0544B8F1000F06D14846FCF7FCF81D
:10A2000000F101081FFA88F8BA697B6A414648469E
:10A210009847002808DB05440BF1010B72E7D7F8DB
:10A220007C80DEE745465CE605465AE6EC21050003
:10A23000688405003C53050004000001D426050095
:10A24000014B1860704700BF2004002080B5054610
:10A250000E461746984620F021FD034627F0BCFF26
:10A26000DFF81890044649F8003042463046394637
:10A27000A84754F8090003F02BFD00BF08000000B8
:10A280002DE9F047058B04462807904611D4022992
:10A2900005F0070540F0CD80204621F076FE78B12C
:10A2A0000138218B042811D8DFE800F0C3106D8538
:10A2B000950001290CBF45F0100545F020052583C8
:10A2C00088F31188BFF36F8FBDE8F08701F0070AAC
:10A2D000AA4500F0A6800027B9463E46A368002B99
:10A2E00000F0BD8041F00801218388F31188BFF39D
:10A2F0006F8FA168002900F0BB800D68002900F075
:10A30000B780D1F80480334652462046C047002D1E
:10A3100076D02B6829461D46F0E701F007035A1F47
:10A32000012A1BD8002221F00701062B276889B2D9
:10A33000C4E9002209D13B4603E0628B013262830B
:10A340001B68002BF9D141F002012183204621F046
:10A350001CFE00287BD041F0200177E0042B0AD1BD
:10A3600021F0070189B22183204621F00EFE10B1B1
:10A3700041F020012183218B01F0070AAA4550D02A
:10A380000027B946AAE7236921F0070141F0060139
:10A39000062DD3F8009021832DD1B9F1000F40D0C4
:10A3A00041F00801218388F31188BFF36F8F3A4988
:10A3B0002046C84729E021F00701236941F0040144
:10A3C00089B2042DD3F804902183E6D000273E46BD
:10A3D0004FF0040A82E721F00701236941F00501EB
:10A3E00089B2052DD3F808902183D6D000273E46A8
:10A3F0004FF0050A72E700273E464FF0060A6DE768
:10A400002B4687E7B9F1000FD1D14FF02003EFF3CE
:10A41000118883F31288BFF36F8F238B23F0080317
:10A420002383258BEA062ED525F01003238305F020
:10A4300007056669218B002EBFF66FAF00232768E2
:10A44000C4E9003321F0070141F001012183218B90
:10A4500001F0070AAA454FF000097FF43FAF002F33
:10A460009BD041F00801218388F31188BFF36F8FDF
:10A47000002FC7D03D68394633465246204621F06A
:10A48000B0FD2F46F4E7AB067FF51AAF25F02003A9
:10A49000238305F00705FFE60FC0040008B5044656
:10A4A0004FF02002EFF3118382F31288BFF36F8F16
:10A4B0001DF052FB204603F04FFF034821F070FBD4
:10A4C00003F076FDFCE700BFF05305001DF06EBB06
:10A4D0002DE9F7430F4606460821C06ADFF8509081
:10A4E00022F017FA3C68241A80463C6004EA090509
:10A4F000AC4203D8002003B0BDE8F08308236A46CD
:10A500002146304622F075F90028F4D169463046DC
:10A5100022F009FA40B1BDF80230BDF804203C60D9
:10A5200005EA090513441D44A4EB0804E0E700BF55
:10A530000000FFFF2DE9F04F8FB0044600AF00F19F
:10A540001408404626F066FFA06A8368DB689847D7
:10A55000E06288B98D4B7B6302238D483B6307F132
:10A5600030024FF482516FF0150522F0CFF92846E2
:10A570003C37BD46BDE8F08FA06A8368DB6898472A
:10A580000368013B1F2B01D9824BE4E7A06A2168D5
:10A5900007F1140226F06EFB08B17F4BDBE7A589BB
:10A5A0002DB1BB69B5FBF3F203FB12550DB17B4B2B
:10A5B000D1E7E389012B01D8794BCCE7E36A3D6011
:10A5C00093F804A04FF0FF334FF0FF3240461FF0E6
:10A5D000E1FDE06A082122F09CF9A9460646E389DC
:10A5E0001FFA85FB5B4508D8E3894B4523D14046DC
:10A5F0001FF04AFE6FF02C05B9E7A1892B04891BD7
:10A6000013FA81F1524608232046396022F03FF9BF
:10A6100078B13946204622F0FAF809F10109396883
:10A620000823524620461FFA89F922F030F9002803
:10A63000DAD00135D3E75B450BD1396808235246A0
:10A64000891B204622F023F918B93946204622F00A
:10A65000DEF839462046FFF73BFF054618B1404675
:10A660001FF012FE83E73B6863604FEA13494FEA2D
:10A670000949C4F80890D4E9011399420FD308237B
:10A680003A1D204622F0B5F805460028E7D13B1DCB
:10A6900013F8012B924544D10135082DF8D1636898
:10A6A0001B0C1B04394620463B6022F0B0F8A389FE
:10A6B00039685246204622F0EAF8051ECFDB63686F
:10A6C00000F0828006EB03094FF6FF7AA389C7F8F2
:10A6D00000901FFA89F29B1B9A423CD3314B7B635B
:10A6E00002232B483B6307F130024FF4865122F0DE
:10A6F0000DF92046616822F0EFF805460028AED13A
:10A700006368294AA18913400B44A3EB46036360A5
:10A710001340A360204622F0EAF90546002D6FD0D1
:10A720009DE7391D204622F0FEF8626810B9921BA1
:10A730006260A0E73D89F988E06AC4F8089029447E
:10A7400022F0E7F848449042A060F0D1002DEED00E
:10A750006FF01C059CE0082307F10C0249462046D7
:10A7600022F047F8054600287FF479AF07F10C0185
:10A77000204622F0D8F830B1BB89534503D13B8A3B
:10A78000002B00F08B80B144A0E700BF2D540500E2
:10A79000EC2605004F5405006C5405008454050058
:10A7A00098540500F55405000000FFFF5B1A52465F
:10A7B000204622F06CF8051EFFF651AF08D0E26A81
:10A7C000A36812681344A360D4E901318B42EDD829
:10A7D0006168A38901EB46029A429FD1DFF800919C
:10A7E000A36801EA0902934298D0204622F074F847
:10A7F000054600287FF433AF636803EA0903A360CA
:10A80000A389A288A3EB46039A423DD040461FF09D
:10A810003BFD0123E84688B02374E289A3896D4695
:10A820002A49EB612E464FF00409C5E9051246F8A6
:10A83000109F274832464FF4035122F067F8C5466F
:10A840006368AD46234A6A611A0C9BB2AA61EB6148
:10A850001F48C5F8109032464FF4035122F056F8C5
:10A86000C546A368AD461C4A6A611A0C9BB2AA6130
:10A87000EB61C5F81090164832464FF4035122F0B0
:10A8800045F80025C54672E6204622F019F905462E
:10A8900040461FF0F9FC002DBBD068E60F4B7B63F0
:10A8A00002233B6307F1300209484FF4865122F03E
:10A8B0002DF863681B0C1B04394620463B6021F0D1
:10A8C000A6FF3968204622F007F826E7BB540500AA
:10A8D000EC260500D2540500E45405001C55050083
:10A8E0000000FFFF2DE9F04F1D46037C8DB00446AC
:10A8F000894690467BB9674B0B93674802230AAAA7
:10A900004FF482516FF00C060A9321F0FFFF30469E
:10A910000DB0BDE8F08FC26A0821104621F0F9FFA2
:10A9200029468246104621F0F4FFA389A3EB8A034F
:10A93000AB420746C0F0AA801DB1B8F1000F00F08D
:10A94000A5806368039304AA03A92046DDF80CB030
:10A9500022F021F806460028D9D1BDF810304B4529
:10A9600005D06268039B9A42EDD1E5B9CFE704A90F
:10A97000204621F0D8FF0028F3D0BDF81200BDF822
:10A98000143075B1AB420ED14FEA1B4109040144AA
:10A990002B464246204621F047FF002803DC0646AE
:10A9A000B5E7002BB3D0002F3DD104F11403019380
:10A9B0004FF0FF320198DFF8E4B04FF0FF331FF0A3
:10A9C000E9FBE3899E425ED0D4E90123F9188A426B
:10A9D0002CD3ADF81A3006A8FF238DF81E30ADF841
:10A9E0001890ADF81C5021F049FFA1682B46424653
:10A9F000204622F01AF829468246E06A21F089FFB3
:10AA0000A2680244A260BAF1000F07D106A920464D
:10AA100022F045F8002814BF8246AA4601981FF08C
:10AA200033FC564673E75744BFB2BEE7E06A0821DD
:10AA300021F06FFF4FF6FF73ADF8183000218DF84D
:10AA40001E30A389ADF81C10111802EA0B021A443B
:10AA5000101A606006A8ADF81A1021F00FFF06A9C1
:10AA6000204622F01CF8211D204621F0D0FE63680C
:10AA700003EA0B03A360204622F039F8824600283F
:10AA8000CCD101369DE76FF01B0AC7E76FF01506C2
:10AA90003DE700BF19540500EC2605000000FFFF4C
:10AAA0002DE9F0471E4688B0037CBDF8409004466F
:10AAB0000F46904673B92F4B2F48079306AA0223DF
:10AAC0004FF48251069321F021FF6FF00C0008B083
:10AAD000BDE8F087C06A082121F01BFFA389A3EB22
:10AAE0004003B34243D3D4F804A0CDF804A000251A
:10AAF0004D455146DDF804A009D9636853451ED180
:10AB0000BDF80830BB421AD06FF00100DFE702AA9F
:10AB100001A9204621F03FFF0028D8D1BDF8083018
:10AB2000BB4206D102A9204621F0FDFE08B1013545
:10AB3000ADB26268019B9A42DAD15146E0E7BDF8B6
:10AB40000C30002BE0D0A945DED8BDF80A00090C76
:10AB5000B3424FEA014128BF3346014442462046F2
:10AB600021F047FE0028B2D1BDF80C00AFE76FF02E
:10AB70001500ACE719540500EC2605002DE9F04757
:10AB8000DFF85880044607464FF0010914B93846EB
:10AB9000BDE8F08794FAA4F5B5FA85F509FA05F34E
:10ABA0002E0108EB05156FEA030A24EA03042B7B48
:10ABB000002BEBD058F806301B694BB946440422F1
:10ABC00073682846196807EA0A0700F05DFADDE7AE
:10ABD000284698470028D9D1F0E700BF6427050030
:10ABE00030B51049104889B0002226F06BFF0F4D98
:10ABF0000F494FF400420023CDE9062300240E2321
:10AC0000CDE90334CDE901440A4B00944FF440727E
:10AC100028461FF097F90849284626F0E0FB204611
:10AC200009B030BD3DAC0200503600208015002038
:10AC3000287A00202DAF02003855050001481FF08A
:10AC400093BB00BF3C1100202DE9F04780461F4810
:10AC50000F4622F038F80646002830D00025284656
:10AC6000BDE8F087237B73B12368DB680BB1204616
:10AC7000984723681B69D3B9636804221968204682
:10AC800000F002FA013610344C45EBD3B8F1000F56
:10AC9000E5D0002DE2D02846FFF770FF0546002FD3
:10ACA000F7D000214FF4A4701FF0C4FFF1E7204655
:10ACB00098470028E0D00AFA06F31D43E2E7044C67
:10ACC000DFF8109005464FF0010ADDE71C44002034
:10ACD0006427050074270500014B53F820007047D6
:10ACE0003C2B050008B5034608462BB1044A136007
:10ACF00000F080FC002008BD6FF01500FBE700BFEE
:10AD00002404002010B5044C237813B903481FF025
:10AD10002BFB0123237010BDB97200203C110020D1
:10AD200010B50446084821F0CEFF5CB1BFF35B8F3D
:10AD3000064B53E8001F013943E80012002AF8D1FE
:10AD4000BFF35B8F10BD00BF1444002018440020E7
:10AD50000020064BBFF35B8F014653E8000F43E82A
:10AD60000012002AF9D1BFF35B8F70471444002012
:10AD700070B5FFF7EDFF084C084E0546B44200D30E
:10AD800070BD63685B792BB123685B6813B129469A
:10AD9000204698471034F1E7642705007427050022
:10ADA00010B5044C0449204621F0C8FB034B1C603D
:10ADB00010BD00BF7C0F0020282B05000C44002094
:10ADC000084A094808B500231370084A1360084A66
:10ADD0004FF400411360FFF785FFBDE80840FFF71F
:10ADE000DFBF00BFBA720020C3CC040014440020AF
:10ADF00018440020014600220148002321F0BFBB77
:10AE00007C0F0020014821F058BC00BF7C0F0020BF
:10AE1000024B0146186821F0A2BC00BF0C44002080
:10AE2000014821F0D8BC00BF7C0F002070B5284B32
:10AE3000187800284BD0FFF7E5FF054690B1BFF327
:10AE40005B8F244B53E8001F013943E80012002AAE
:10AE5000F8D1BFF35B8F204C204EB4422DD328464F
:10AE6000FFF7D6FF1E4B1F4C1B68002B19DD26F089
:10AE7000E2FD4FF47A72A0FB020302FB0131C30B27
:10AE8000D4E9002043EA41439B1A4FEAD13140F212
:10AE9000E93261EB0001934271F1000101D3FFF748
:10AEA00067FFD4E9003213F57A7342F10002C4E976
:10AEB0000032BDE87040FFF7B3BF63685B7923B130
:10AEC000236829461B68204698471034C5E770BDA3
:10AED000B97200201844002064270500742705007B
:10AEE000144400204836002070B50D4D297861B912
:10AEF0000120FFF7A9FE0B4C0B4EB44206D3FFF71F
:10AF000095FF0028FBD101232B7070BD63685B792E
:10AF10001BB1236820469B6898471034EDE700BFBB
:10AF2000BA720020642705007427050000212DE96E
:10AF3000F0470846FFF788FE044658B340F26768BA
:10AF40004FF0000927F048F91B4B1C4A1B581360AF
:10AF500033B11B4B1B68092B02DD1A481FF004FAA2
:10AF6000194FDFF860A0002544B12046FFF706FE28
:10AF7000044618B94FF0FF384FF0FF39FFF756FF7E
:10AF8000064628B9B5B942464B4650461FF012FA5C
:10AF90003546E9E74FF0FF384FF0FF39D2E72B682D
:10AFA0009B691BB100221146284698471035BD42C7
:10AFB000F5D3E8E7054DFAE708000000104400204B
:10AFC000184400203C110020742705006427050068
:10AFD00013B5184821F077FE174B1B787BB14FF063
:10AFE0002003EFF3118483F31288BFF36F8FFFF711
:10AFF0001DFF84F31188BFF36F8F02B010BD0F4B9C
:10B000001B68002BF9D050B900220023CDE90023A2
:10B010000B4840F6CD42002320F088F8EDE70928E0
:10B02000EBD1074826F05AFD064802B0BDE81040B3
:10B030001FF09AB918440020BA7200201044002072
:10B04000503600203C11002010B5064B1B6804460A
:10B0500098472146A060044821F00FFBBDE810404E
:10B06000FFF7B6BF240400207C0F0020044A054BE4
:10B070009B1AB1EBD30F34BF52F831000020704758
:10B080001C26050064270500084BC31A10B41B11C9
:10B0900044680133237143689A71436819604368B7
:10B0A00001225A715DF8044BFFF72CBE642705009E
:10B0B0002DE9F04F8FB004AFC1F34A28B8600D46B8
:10B0C00091467B600C0DB8F1000F63D0002607F1AC
:10B0D00014034FF0040B4FF00A0AC7F80C80C7E9BD
:10B0E00007667E620193CDF808B0CDF800A007F1A5
:10B0F0001C03F96832464846FEF7CAFEB0F5006FF9
:10B1000003461CD36C468AB0D9F8041004AB264819
:10B11000C3E9050140F2FF71D9611A464FF400718D
:10B120001984224B42F8103F214833464FF4125104
:10B13000FFF7BEFFA5462C37BD46BDE8F08FC0F334
:10B140000A0804F11700184420F0070080083B604B
:10B15000FFF750FE68F35325044690B13B68154A4B
:10B16000C7E9083600F1100107F11403F961CDE9D0
:10B1700000A3CDF808B0F96807F11C034846FEF7B4
:10B1800087FE68F353257B68B9682A46204621F07C
:10B19000D0FDD0E704F1170020F007008008FFF78A
:10B1A00029FE0446EDE700BF4D55050004000001EF
:10B1B000F426050007CD04002DE9F04F87B0DDE946
:10B1C0001269DDE9105A04460F4693469846A6B325
:10B1D0001021CDF80090334652460020CDF814904F
:10B1E000FEF784FC014605F117000844144B039157
:10B1F00004F007040BF0070BE40020F0070003EA5B
:10B20000412344EA8B1480081C43FFF7F3FD44EA12
:10B210000554054640B13EB10399CDF80090334640
:10B2200052461030FEF762FC434622463946284615
:10B2300007B0BDE8F04F21F07CBD3146D3E700BF39
:10B2400000FE0F000EB403B503AB014653F8042B08
:10B250000448019303F03AF802B05DF804EB03B040
:10B26000704700BF99CD0400CA0605D48B064CBFB9
:10B2700002490349FFF7E6BF704700BF8D5505003F
:10B280008C5505002DE9F04F8BB09A46DDE9167319
:10B290009DF854B00693189B199E089204460D46DB
:10B2A0000593BBF1000F00F0858006F001030993C0
:10B2B00006F00803079321F024FD06F00209024678
:10B2C000002847D084492046FFF7BCFF8046B9F1EB
:10B2D000000F08D016F0440F3ED180492A46204680
:10B2E000FFF7B0FF8044099B53B17D4B7D4953F874
:10B2F0002B207D4B2046002A08BF1A46FFF7A2FFED
:10B30000079B002B54D0794B794953F82B202046CA
:10B31000FFF798FF0546089B2BB176491A46204651
:10B32000FFF790FF0544BAF1000F05D0724952466D
:10B330002046FFF787FF05444544002F48D1059B71
:10B34000002B4ED1F30700F1C08031462046FFF7B5
:10B350008BFFB4E08046BAE7684B18680028C1D07C
:10B36000674B4FF47A791B68B5FBF3F54FF46161D5
:10B37000B5FBF0F300FB135509FB05F54FF03C0C52
:10B38000B3FBF1F201FB1231B5FBF0FEB1FBFCF3B4
:10B3900000FB1E550CFB131109FB05F50091B5FBD5
:10B3A000F0F55849CDE901E52046FFF74BFF99E755
:10B3B000079DB0E7BAF1010F06D1002F65D1059BBB
:10B3C000002B7CD000250CE0002FF8D04E485DE02B
:10B3D0004E484F493B46224620F011FB059B002B6F
:10B3E00069D0DFF84081DFF84091059F3146102F8A
:10B3F000204628BF1027FFF737FF4FF0000A5545BA
:10B4000046DC069B49461A782046FFF71BFF4FF0A3
:10B41000010A1AF0070F03D141462046FFF712FF39
:10B4200057453CD9069B494613F80A202046FFF7AA
:10B4300009FF0AF1010ABAF1100FEAD13549204695
:10B440004FF0000AFFF7FEFE5246069B9A5C324B15
:10B45000995C11F0970F08BF2E2230492046FFF764
:10B46000F1FE0AF1010ABAF1100F1DD01AF0070F10
:10B4700003D141462046FFF7E5FE57455246E4D842
:10B4800041462046FFF7DEFEEBE720485D46A0E799
:10B4900041462046FFF7D6FE0AF1010AAFE72049F0
:10B4A0002046FFF7CFFEC4E7069B3B440693059B6F
:10B4B000DB1B059399D1BBF1000F7FF443AF20460E
:10B4C0000BB0BDE8F04F21F05ABC074A05492046B1
:10B4D000FFF7B8FE39E700BF945505009855050001
:10B4E0004C2B0500026705008F550500602B0500F9
:10B4F000BD550500C3550500205205002444002019
:10B5000020440020A1550500CFCD040099CD0400B2
:10B51000CDE20200D15505000D830500D35505008D
:10B52000CD550500CF550500C75505002DE9F04163
:10B530000F884B688E6886B005460C469046C7F368
:10B5400082175BB1144A9B1A43F3CF01002920DB19
:10B550002078C0F3C200FFF789FD034621466088CA
:10B5600051F8102B0197C2F34A22002A01EB020482
:10B57000C0F30B1008BF00210022CDE90408CDE97B
:10B580000214009231462846FFF77CFE06B0BDE863
:10B59000F0810023E2E700BF1C26050073B542F2EC
:10B5A0000F738B4228BF0B4605680F4A04460521DE
:10B5B00068461FF091FE63680C495B6806460B22E3
:10B5C000284621F0CFFB63683246694628465B680F
:10B5D00021F0C8FB636806495B681B22284621F0FE
:10B5E000C1FB02B070BD00BF63810500F2550500CC
:10B5F000D6550500074A00210123904206D8064A85
:10B6000001B901231360054B1860704740085B00C7
:10B610000121F2E740420F00204400202444002092
:10B62000014B0020196070473C440020024B034846
:10B6300001221A7021F0A3BBBC720020902B0500E0
:10B640000148FFF7ABBF00BF902B050010B5064BBC
:10B6500018680C46FFF740FB21460346BDE8104042
:10B6600002480F22184700BF3C440020902B0500E1
:10B67000F8B5074F0D4604464618B44201D1284696
:10B68000F8BD14F8011BBB6801485B689847F4E7F4
:10B6900088230500014B036000207047A02B0500A4
:10B6A00070B5114B1C680D46DCB1104B19680023B6
:10B6B0008B4202DB6FF0010070BD224612F8106B66
:10B6C000864202D001331446F2E7E06810B96FF009
:10B6D0001200F1E725F0C0FD0028F8D02C60002012
:10B6E000EAE76FF00C00E7E728040020A02B050034
:10B6F00070B588B005460C46C0B269461646FFF7DD
:10B70000CFFF00281BDB0098C8B143680293836811
:10B7100022680195CDE903360023CDE90623059380
:10B72000C56821F063FB6DB12846084901AA25F0E0
:10B73000A5FA079808B9059B236008B070BD6FF0A3
:10B740001500FAE76FF01200F7E700BFEFCD040035
:10B75000F0B40C4B0C4E5F6A0C4BB34203D36FF04A
:10B760008500F0BC70475D68BD4209D31C693CB1DF
:10B7700095F802C00579AC4502D12346F0BC1847C4
:10B780002433EAE740440020801300205C130020AB
:10B790002DE9F047134CDFF85080DFF85090054654
:10B7A0000E461746444503D36FF08500BDE8F08789
:10B7B0006268D9F824309A4212D3A36983B1907891
:10B7C0002979884205D13A4631462846BDE8F047F6
:10B7D00018475279012A03D13A46314628469847FC
:10B7E0002434DFE75C130020801300204044002055
:10B7F0002DE9F0410B4CDFF8308005460E46174628
:10B80000444502D36FF0850009E063690BB9243425
:10B81000F6E73A463146284698470028F7D1BDE872
:10B82000F08100BF5C13002080130020024B002237
:10B830001A605A60704700BFFB44002070B50B4B84
:10B840000B4CA34201D3002070BD196A1E7F002259
:10B850000439D5B2AE4201D82433F2E7013211F8EF
:10B8600032508542F5D10120EEE700BF5C13002085
:10B870008013002008B509480378C3F341130A3345
:10B8800050F823303BB100F1080200F11001984755
:10B89000C043C00F08BD1846FCE700BF404400206D
:10B8A0007FB5074B05930748022304AA4FF4825142
:10B8B000049321F0BEFA4FF0FF3007B05DF804FBAF
:10B8C000385605004C27050080B500AF88B06A46A1
:10B8D000064BC2E90530032342F8103F04484FF4F9
:10B8E000C25121F0A6FA0020BD4680BD5D5605007C
:10B8F0004C270500F8B500AF054625F07EF810F19D
:10B90000780F04461AD16C4688B06A46154B164823
:10B91000C2E90535032342F8103F4FF4C45121F02A
:10B9200088FAA546284621F087FA104AD2F8C43092
:10B9300023EA0003C2F8C430002410E00028F1D04C
:10B940006E4688B06A460A4B0748C2E905350323AC
:10B9500042F8103F4FF4C25121F06BFAB546204631
:10B96000BD46F8BD785605004C2705004044002030
:10B970009956050004282DE9F74FDFF8A4900446F6
:10B980000F4615D001282FD1DFF8908098F8B930F4
:10B9900053B300F081FF204D4D4522D22A6A4FF06B
:10B9A000000A2B7F5FFA8AF6B34204D82435F3E706
:10B9B000FFF73CFFE8E702EBC6060192307925F07D
:10B9C0001CF88346307921F037FAD8F8C430019A50
:10B9D00023EA0003BBF1000FC8F8C4300AF1010AE2
:10B9E000DFDA002388F8B9300B4D4D4508D30B4BF7
:10B9F0001B6A6BB13946204603B0BDE8F04F1847CB
:10BA0000EB681BB13A462146284698472435ECE7B7
:10BA100003B0BDE8F08F00BF5C130020404400205D
:10BA200080130020F0B583B0C4B200AF63060D46AA
:10BA3000FC7107D02046FFF701FFE8B11C4B93F8DB
:10BA4000BA00C8B11A4ED5B16D4688B06A46194BD6
:10BA50001948C2E90534032342F8103F4FF4C65198
:10BA600021F0E7F9AD46F8791AF0A6F8F36913B1B9
:10BA7000F91D0820984701200C37BD46F0BD6D46E2
:10BA800088B06A460D4B0C48C2E90534032342F8DE
:10BA9000103F4FF4C65121F0CCF9AD46F8791AF0B9
:10BAA000B3F8F369002BE6D0F91D0920E2E700BFE7
:10BAB00040440020BB5605004C270500CE5605002B
:10BAC000F0B583B000AF044680783870237962798E
:10BAD000364D43EA02237B80E37803F003033B7196
